:100000000C9446000C9463000C9463000C94630001
:100010000C9463000C9463000C9463000C946300D4
:100020000C9463000C9463000C9463000C946300C4
:100030000C9463000C9463000C9463000C946300B4
:100040000C9463000C9463000C9463000C946300A4
:100050000C9463000C9463000C9463000C94630094
:100060000C9463000C9463000C9463000C94630084
:100070000C9463000C9435020C9476010C9463008C
:100080000C9463000C9463000C94630011241FBE55
:10009000CFEFD0E1DEBFCDBF11E0A0E0B1E0ECEAF0
:1000A000FAE002C005900D92A834B107D9F711E02B
:1000B000A8E4B1E001C01D92AB35B107E1F70E94A1
:1000C00062030C9454050C940000DF93CF930F92BD
:1000D000CDB7DEB710924B0110924A0110924C013D
:1000E00019825CC08981282F30E0C901880F991FCF
:1000F000880F991F820F931F80509F4FFC01208112
:100100003181F9018081682F8981482F50E0CA012F
:10011000880F991F880F991F840F951F8C5F9E4F22
:10012000FC018081482F50E081E090E002C0880F00
:10013000991F4A95E2F7862BF90180838981282F40
:1001400030E0C901880F991F880F991F820F931FF4
:100150008E5F9E4FFC0120813181F9018081682FE3
:100160008981482F50E0CA01880F991F880F991F75
:10017000840F951F8C5F9E4FFC018081482F50E0BB
:1001800081E090E0042E02C0880F991F0A94E2F7E4
:10019000862BF901808389818F5F898389818830EB
:1001A00008F4A0CF109249010E9463018093480196
:1001B0000F90CF91DF910895DF93CF930F92CDB73A
:1001C000DEB7F8940E940604882311F00E946D01A6
:1001D000198270C080914901882F90E02981222FD7
:1001E00030E0022E02C0959587950A94E2F781705F
:1001F0009070882379F18981282F30E0C901880F18
:10020000991F880F991F820F931F8E5F9E4FFC01CD
:1002100020813181F9018081682F8981482F50E048
:10022000CA01880F991F880F991F840F951F8C5F33
:100230009E4FFC018081482F50E081E090E0042E29
:1002400002C0880F991F0A94E2F780958623F9016E
:1002500080832DC08981282F30E0C901880F991F24
:10026000880F991F820F931F8E5F9E4FFC01208184
:100270003181F9018081682F8981482F50E0CA01BE
:10028000880F991F880F991F840F951F8C5F9E4FB1
:10029000FC018081482F50E081E090E0042E02C0F4
:1002A000880F991F0A94E2F7862BF90180838981D0
:1002B0008F5F89838981883008F48CCF78940F9080
:1002C000CF91DF910895DF93CF93CDB7DEB70E9432
:1002D00071048068CF91DF910895DF93CF93CDB7FC
:1002E000DEB710924901CF91DF9108951F920F92CE
:1002F0000FB60F9211242F933F934F935F936F93F9
:100300007F938F939F93AF93BF93EF93FF93DF936D
:10031000CF93CDB7DEB78CE990E0FC01808180936C
:100320004A0180914B01813029F580914D0188234C
:1003300089F09091480180914A01981731F482E048
:1003400080934B0110924C0102C010924B0110920D
:100350004D014AC080914A01803409F045C0909116
:100360004D0181E08927882309F43EC081E0809314
:100370004D013AC080914B018230B1F580914C0122
:10038000882F90E020914A01825B9E4FFC012083E0
:1003900080914C01823098F480914C01882F90E03C
:1003A000885D9E4FFC01908180914A019817B9F0B9
:1003B00010924B0180E060E00E94D90210C0809151
:1003C0004C01833060F0809151018093490110927B
:1003D0004B0110925A0180E061E00E94D9028091A5
:1003E0004C018F5F80934C0180915801882371F0FC
:1003F00080914A01843289F41092580181E08093FF
:100400004B0110924C011092320107C080914A01B9
:10041000853219F481E08093580180915901882335
:1004200051F080914A018A3069F41092590181E0BB
:100430008093320107C080914A018D3019F481E028
:1004400080935901CF91DF91FF91EF91BF91AF91CF
:100450009F918F917F916F915F914F913F912F91DC
:100460000F900FBE0F901F9018951F920F920FB60E
:100470000F9211242F933F934F935F936F937F932A
:100480008F939F93AF93BF93EF93FF93DF93CF939C
:10049000CDB7DEB780915A018F5F80935A0180916A
:1004A0005A018B3040F010925A010E946D0180E099
:1004B00060E00E94D902CF91DF91FF91EF91BF914F
:1004C000AF919F918F917F916F915F914F913F91EC
:1004D0002F910F900FBE0F901F901895DF93CF9321
:1004E0000F92CDB7DEB719825CC08981282F30E02A
:1004F000C901880F991F880F991F820F931F8D5C68
:100500009E4FFC0120813181F9018081682F898112
:10051000482F50E0CA01880F991F880F991F840F38
:10052000951F895C9E4FFC018081482F50E081E03F
:1005300090E002C0880F991F4A95E2F7862BF901D7
:1005400080838981282F30E0C901880F991F880F87
:10055000991F820F931F8B5C9E4FFC01208131817C
:10056000F9018081682F8981482F50E0CA01880FE6
:10057000991F880F991F840F951F895C9E4FFC015E
:100580008081482F50E081E090E0042E02C0880F67
:10059000991F0A94E2F7862BF901808389818F5F86
:1005A00089838981843008F4A0CF0F90CF91DF91A7
:1005B0000895DF93CF9300D0CDB7DEB789836A83E8
:1005C0008A818823F1F18981282F30E0C901880FC1
:1005D000991F880F991F820F931F8B5C9E4FFC0100
:1005E000408151818981282F30E0C901880F991FEE
:1005F000880F991F820F931F8B5C9E4FFC01808197
:100600009181FC018081682F8981282F30E0C90108
:10061000880F991F880F991F820F931F895C9E4F27
:10062000FC018081282F30E081E090E0022E02C0A2
:10063000880F991F0A94E2F780958623FA01808338
:100640003CC08981282F30E0C901880F991F880F8D
:10065000991F820F931F8B5C9E4FFC01408151813B
:100660008981282F30E0C901880F991F880F991FB1
:10067000820F931F8B5C9E4FFC0180819181FC0156
:100680008081682F8981282F30E0C901880F991F48
:10069000880F991F820F931F895C9E4FFC018081F8
:1006A000282F30E081E090E0022E02C0880F991FD1
:1006B0000A94E2F7862BFA0180830F900F90CF9176
:1006C000DF910895DF93CF93CDB7DEB7F8940E9402
:1006D00022040E946E020E94DA030E9465008CE0F0
:1006E0000E94760378940E94DC00FDCFDF93CF93C5
:1006F0000F92CDB7DEB7898388E969810E94B00483
:1007000081E390E021E330E0F90120812061FC01E8
:10071000208380E00E94BA030F90CF91DF9108956B
:10072000DF93CF930F92CDB7DEB78983F89481E042
:100730000E94BA0389810E94FC0480E00E94BA03EF
:1007400078940F90CF91DF910895DF93CF9300D0ED
:10075000CDB7DEB79A838983F89480E00E94BA030C
:1007600089819A810E94300578940F900F90CF91E3
:10077000DF910895DF93CF930F92CDB7DEB78983D2
:100780008981882351F082E390E022E330E0F9018F
:1007900020812061FC01208309C082E390E022E3F4
:1007A00030E0F90120812F7EFC0120830F90CF9152
:1007B000DF910895DF93CF93CDB7DEB78AE390E062
:1007C0002AE330E0F90120812E7FFC0120838BE3B6
:1007D00090E02BE330E0F90120812160FC012083CF
:1007E0008BE890E0FC0110828AE890E022E0FC01B6
:1007F00020838DE790E024E0FC01208388E890E0EE
:10080000FC0111821082CF91DF910895DF93CF9385
:10081000CDB7DEB789E390E0FC018081882F90E0BE
:1008200081709070009731F481E061E00E94D902FC
:1008300080E005C081E060E00E94D90281E0CF91B4
:10084000DF910895DF93CF93CDB7DEB781E690E0D7
:1008500021E630E0F9012081277FFC01208382E638
:1008600090E022E630E0F90120812860FC0120833D
:1008700081E690E021E630E0F90120812B7FFC0148
:10088000208382E690E022E630E0F90120812460B6
:10089000FC01208381E690E021E630E0F90120812F
:1008A0002D7FFC01208382E690E022E630E0F90112
:1008B00020812260FC01208381E690E021E630E087
:1008C000F90120812E7FFC01208382E690E022E660
:1008D00030E0F90120812160FC012083CF91DF917C
:1008E0000895DF93CF930F92CDB7DEB7198280E2E0
:1008F00090E0FC018081882F90E0817090700097DB
:1009000019F489818160898380E290E0FC01808113
:10091000882F90E082709070009719F4898182602E
:10092000898380E290E0FC018081882F90E08470D0
:100930009070009719F489818460898380E290E047
:10094000FC018081882F90E088709070009719F4E6
:1009500089818860898389810F90CF91DF91089583
:10096000DF93CF9300D000D0CDB7DEB78B836C83FD
:100970008BE990E02BE930E0F90120812260FC0155
:1009800020838AE990E0FC0110828DE990E026E066
:10099000FC0120831A82198205C089819A810196FF
:1009A0009A83898389819A81F3E188389F07A8F324
:1009B0008BE990E02BE930E0F9012081237EFC01F6
:1009C00020838AE990E02B81FC01208388E990E074
:1009D0002C81222F30E0232F330F330BFC01208397
:1009E00089E990E02C81FC0120830F900F900F90FB
:1009F0000F90CF91DF910895DF93CF9300D00F92A6
:100A0000CDB7DEB78B8300008BE990E0FC018081DD
:100A1000882F90E0807290700097B1F38CE990E09D
:100A20002B81FC0120838BE990E02BE930E0F90178
:100A300020812F7DFC0120831A82198205C08981C3
:100A40009A8101969A83898389819A81F3E1883812
:100A50009F07A8F30F900F900F90CF91DF9108950B
:100A6000DF93CF9300D0CDB7DEB79A8389830000A0
:100A70008BE990E0FC0180818823D4F78CE990E039
:100A8000FC01208189819A81FC0120838BE990E01F
:100A90002BE930E0F90120812F77FC0120830F90B2
:0C0AA0000F90CF91DF910895F894FFCFE4
:100AAC0034003500003400350001340035000234C8
:100ABC0000350003340035000434003500053400E3
:100ACC00350006340035000744523D002524000D46
:100ADC000A00013A003B00073A003B00063A003B93
:080AEC0000053A003B00040084
:00000001FF
