:100000000C9446000C94940C0C94B10C0C9463006A
:100010000C9463000C94CE0C0C94EB0C0C94080D17
:100020000C94250D0C9463000C9478020C946300DE
:100030000C9463000C9463000C9463000C946300B4
:100040000C9463000C9463000C9401020C94630004
:100050000C9463000C9463000C9463000C94630094
:100060000C9463000C9463000C9463000C94630084
:100070000C9463000C9463000C94A2080C94410946
:100080000C948B090C9463000C94630011241FBE24
:10009000CFEFD0E1DEBFCDBF12E0A0E0B1E0E8E5F8
:1000A000FFE502C005900D92A237B107D9F715E020
:1000B000A2E7B2E001C01D92A33FB107E1F70E94A1
:1000C00001120C94AA2F0C940000DF93CF930F928F
:1000D000CDB7DEB719822BC08981882F90E02981A6
:1000E000222F30E0220F331F20533B4FF901208194
:1000F0003181880F991F8D589D4FFC0131832083DA
:100100008981882F90E02981222F30E0220F331F30
:1001100028523B4FF90120813181880F991F855862
:100120009D4FFC013183208389818F5F8983898181
:10013000843090F20F90CF91DF910895DF93CF93A9
:10014000CDB7DEB70E94A0102091E0043091E10409
:1001500088E163E370E0F90109950E94BE11882FE0
:1001600090E081709070882319F01092720226C07E
:100170000E94BE11882F90E082709070009721F04D
:1001800081E0809372021AC00E94BE11882F90E015
:1001900084709070009721F082E0809372020EC00C
:1001A0000E94BE11882F90E088709070009721F017
:1001B00083E08093720202C01092720220E031E06C
:1001C00080917202882F90E0880F991F880F991FE5
:1001D000280F391F80E491E0B90142E00E943A0102
:1001E00020E131E080917202882F90E0880F991F02
:1001F000880F991F280F391F83E491E0B90142E06D
:100200000E943A0120E331E080917202882F90E051
:10021000880F991F880F991F280F391F86E491E0D6
:10022000B90142E00E943A0120E231E0809172027D
:10023000882F90E0880F991F880F991F280F391F6A
:1002400089E491E0B90142E00E943A018CE491E036
:100250002FE431E0B90142E00E943A012091E0042C
:100260003091E10488E96FEC70E0F9010995CF91D4
:10027000DF910895DF93CF9300D000D00F92CDB7D8
:10028000DEB79A8389837C836B834D8320917302CD
:100290003091740280E4F901099520917302309144
:1002A000740289819A81FC018081F901099520916C
:1002B00073023091740289819A810196FC018081D8
:1002C000F90109950FC020917302309174028B815E
:1002D0009C81FC018081F90109958B819C810196AB
:1002E0009C838B8381E09D81992309F480E09D812B
:1002F00091509D83882339F72091730230917402C5
:100300008DE0F901099520917302309174028AE021
:10031000F90109950F900F900F900F900F90CF91CA
:10032000DF910895DF93CF930F92CDB7DEB7109290
:10033000A7041092830210928602109285021092F6
:100340008402198211C08981882F90E02981222F8F
:1003500030E02A5A3E4FF901208180569D4FFC0122
:10036000208389818F5F89838981843060F30F9036
:10037000CF91DF910895DF93CF930F92CDB7DEB782
:10038000F894198211C08981882F90E02981222F49
:1003900030E020563D4FF90120818C559D4FFC01E6
:1003A000208389818F5F89838981843060F3789489
:1003B00084EA92E00F90CF91DF910895DF93CF937D
:1003C0000F92CDB7DEB7F894198211C08981882FBA
:1003D00090E02981222F30E02A5A3E4FF9012081F6
:1003E0008C559D4FFC01208389818F5F8983898192
:1003F000843060F3789484EA92E00F90CF91DF919B
:1004000008951F920F920FB60F9211242F938F937E
:100410009F93EF93FF93DF93CF93CDB7DEB7809198
:10042000D9059091DA05FC01808180938702809143
:100430008602882309F447C080918302882F90E0C8
:100440002091870288579D4FFC0120838091830271
:100450008230A0F480918302882F90E08E5A9E4FC4
:10046000FC01908180918702981739F110928602E1
:1004700081E08093A70410923B051FC08091830206
:100480008830D9F480918D028093A00280918E02F1
:100490008093A10280918F028093A20280919002AA
:1004A0008093A3021092860281E080933B05109214
:1004B0008502109284021092A704809183028F5FBC
:1004C0008093830209C0809187028A3229F41092B6
:1004D000830281E080938602CF91DF91FF91EF91BB
:1004E0009F918F912F910F900FBE0F901F90189595
:1004F0001F920F920FB60F9211242F933F938F9359
:100500009F93EF93FF93DF93CF930F92CDB7DEB717
:100510008091840290918502019690938502809348
:100520008402809184029091850223E080329207B8
:10053000F8F0198211C08981882F90E02981222F3B
:1005400030E02A5A3E4FF901208180569D4FFC0130
:10055000208389818F5F89838981843060F3109241
:100560003B05109285021092840281E08093A704DB
:100570000F90CF91DF91FF91EF919F918F913F91DC
:100580002F910F900FBE0F901F901895DF93CF9370
:1005900000D000D0CDB7DEB79C838B838B819C814C
:1005A00080509F4FFC01118210828B819C818E5F55
:1005B0009E4FFC01118210828B819C818C5F9E4F2B
:1005C000FC0110821A8219820DC02B813C81898125
:1005D0009A81820F931FFC01108289819A81019672
:1005E0009A83898389819A818F3F910571F368F39A
:1005F0000F900F900F900F90CF91DF910895DF93A0
:10060000CF9300D000D0CDB7DEB79A8389837C83A7
:100610006B83F8948B819C818E5F9E4FFC0180815F
:100620009181009789F48B819C818C5F9E4FFC01A6
:1006300010828AE990E02AE930E0F90120812F7DDB
:10064000FC01208380E062C08B819C8180509F4FA1
:10065000FC01808191812B813C81820F931FFC01E1
:10066000208189819A81FC0120838B819C8180502B
:100670009F4FFC01808191812B813C81820F931FD0
:1006800021E4FC0120838B819C818E5F9E4FFC01C5
:10069000808191819C01215030408B819C818E5FB3
:1006A0009E4FFC01318320838B819C8180509F4F22
:1006B000FC01808191819C012F5F3F4F8B819C8148
:1006C00080509F4FFC01318320838B819C8180501F
:1006D0009F4FFC01808191819C0130708B819C81B6
:1006E00080509F4FFC01318320838B819C818E5FE2
:1006F0009E4FFC0180819181009731F48B819C8118
:100700008C5F9E4FFC011082789481E00F900F90D7
:100710000F900F90CF91DF910895DF93CF9300D08A
:100720000F92CDB7DEB789837B836A83F8948A8181
:100730009B818E5F9E4FFC01808191818F3F91054F
:1007400051F048F08A819B818C5F9E4F22E0FC0132
:10075000208380E048C08A819B818C5F9E4F21E08E
:10076000FC0120838A819B8180509F4FFC01208166
:1007700031818A819B818E5F9E4FFC0180819181B6
:10078000820F931F90702A813B81820F931F2981D2
:10079000FC0120838A819B818E5F9E4FFC018081BA
:1007A00091819C012F5F3F4F8A819B818E5F9E4F7D
:1007B000FC01318320838A819B818E5F9E4FFC01E7
:1007C000808191818F3F910541F038F08A819B8132
:1007D0008C5F9E4F22E0FC0120838A819B810E94D6
:1007E000F903789481E00F900F900F90CF91DF91F3
:1007F0000895DF93CF9300D0CDB7DEB79A83898376
:1008000089819A818C5F9E4FFC018081882351F001
:100810008AE990E02AE930E0F90120812062FC01B8
:10082000208309C08AE990E02AE930E0F9012081BB
:100830002F7DFC0120830F900F90CF91DF910895C1
:10084000DF93CF930F92CDB7DEB789831092B902B1
:100850001092BA021092BB022091E2043091E3049C
:100860008981482F50E088EFBA01F90109958091FC
:10087000BB059091BC052091BB053091BC05F901E9
:1008800020812061FC01208380E00E94870489ECA4
:1008900092E00E94C6020E94AF040E943C060E94A1
:1008A000B8070F90CF91DF910895DF93CF930F9208
:1008B000CDB7DEB78983F89481E00E948704209148
:1008C000D2043091D3048981F901099580E00E9416
:1008D000870478940F90CF91DF910895DF93CF93A1
:1008E00000D0CDB7DEB79A838983F89480E00E9468
:1008F00087042091DA043091DB0489819A81F9011F
:10090000099578940F900F90CF91DF910895DF9320
:10091000CF930F92CDB7DEB789838981882371F099
:100920008091BD059091BE052091BD053091BE0519
:10093000F90120812061FC0120830DC08091BD055B
:100940009091BE052091BD053091BE05F901208131
:100950002F7EFC0120830F90CF91DF910895DF93CC
:10096000CF9300D0CDB7DEB7198215C08981882F0B
:1009700090E0880F991F88549B4FFC011082898159
:10098000882F90E0880F991F87549B4FFC0110829D
:1009900089818F5F89838981883040F319824BC0B8
:1009A0001A8216C08981282F30E08A81482F50E0B2
:1009B000C901880F991F880F991F820F931F840FF9
:1009C000951F87559D4FFC0110828A818F5F8A8316
:1009D0008A81843038F38981282F30E0C901880F5B
:1009E000991F880F991F820F931F88559D4F20E2F2
:1009F000FC0120838981282F30E0482F50E0CA0174
:100A0000880F991F880F991F840F951F88559D4F38
:100A1000FC0190818981492F482BC901880F991FBA
:100A2000880F991F820F931F88559D4FFC014083AB
:100A300089818F5F89838981823008F4B1CF0F90DB
:100A40000F90CF91DF910895DF92EF92FF920F9375
:100A50001F93DF93CF930F92CDB7DEB7198267C094
:100A6000898186958695282F30E08981882F90E0AE
:100A7000AC01437050708981882F90E0880F991FD6
:100A800088549B4FFC016081C901880F991F880F12
:100A9000991F820F931F840F951F87559D4FFC014F
:100AA00060832981822F86958695082F10E04981E1
:100AB000842F90E00F2EF3E0EF2EFF24F02DE8229C
:100AC000F922822F86958695282F30E0842F90E09A
:100AD000AC0143705070C901880F991F880F991F8E
:100AE000820F931F840F951F87559D4FFC018081B6
:100AF000D82E8981882F90E0880F991F87549B4FAB
:100B0000FC0180810E94EF168C7F8D29282FC8015F
:100B1000880F991F880F991F800F911F8E0D9F1DA1
:100B200087559D4FFC01208389818F5F898389814F
:100B3000883008F495CF198292C029EC32E085E222
:100B4000B9010E948D0329EC32E084E2B9010E94D0
:100B50008D0329EC32E080E4B9010E948D03898184
:100B6000282F30E0C901880F991F880F991F820F25
:100B7000931F88559D4FFC01808129EC32E0B9011B
:100B80000E948D0329EC32E084E4B9010E948D03B8
:100B900029EC32E082E5B9010E948D0329EC32E0B4
:100BA0008DE3B9010E948D038981282F30E0C901AE
:100BB000880F991F880F991F820F931F87559D4F8C
:100BC000FC01808129EC32E0B9010E948D0389810A
:100BD000282F30E0C901880F991F880F991F820FB5
:100BE000931F86559D4FFC01808129EC32E0B901AD
:100BF0000E948D038981282F30E0C901880F991F39
:100C0000880F991F820F931F85559D4FFC0180818E
:100C100029EC32E0B9010E948D038981282F30E050
:100C2000C901880F991F880F991F820F931F845540
:100C30009D4FFC01808129EC32E0B9010E948D03B7
:100C400029EC32E08DE0B9010E948D0329EC32E0FD
:100C50008AE0B9010E948D0389818F5F8983898130
:100C6000823008F46ACF0F90CF91DF911F910F91DE
:100C7000FF90EF90DF900895DF93CF9300D0CDB732
:100C8000DEB719820AC08981882F90E088559B4F72
:100C9000FC01108289818F5F89838981803198F37B
:100CA00019824BC01A8216C08981282F30E08A81B0
:100CB000482F50E0C901880F991F880F991F820F94
:100CC000931F840F951F8D549D4FFC0110828A81C4
:100CD0008F5F8A838A81843038F38981282F30E0BE
:100CE000C901880F991F880F991F820F931F8E5477
:100CF0009D4F20E4FC0120838981282F30E0482F7C
:100D000050E0CA01880F991F880F991F840F951F03
:100D10008E549D4FFC0190818981492F482BC90138
:100D2000880F991F880F991F820F931F8E549D4F14
:100D3000FC01408389818F5F89838981882309F43D
:100D4000B1CF0F900F90CF91DF910895DF93CF93A4
:100D500000D0CDB7DEB719821EC01A8216C08981B5
:100D6000282F30E08A81482F50E0C901880F991F51
:100D7000880F991F820F931F840F951F8D549D4FCD
:100D8000DC011C928A818F5F8A838A81843038F3E8
:100D900089818F5F898389818823F9F2198247C00D
:100DA0009981892F82958F70282F30E08981482F73
:100DB00046954695642F70E092959F70492F50E0BC
:100DC00086958695E82FF0E0CA01880F991F880F55
:100DD000991F840F951F8E0F9F1F8D549D4FFC01EF
:100DE0008081E82F8981882F90E088559B4FDC0116
:100DF0008C91882F90E04981442F50E043705070CF
:100E000002C0880F991F4A95E2F78E2B482FC9011F
:100E1000880F991F880F991F820F931F860F971FA6
:100E20008D549D4FFC01408389818F5F8983898127
:100E3000803108F4B5CF198292C029EC32E085E206
:100E4000B9010E948D0329EC32E084E2B9010E94CD
:100E50008D0329EC32E080E4B9010E948D03898181
:100E6000282F30E0C901880F991F880F991F820F22
:100E7000931F8E549D4FDC018C9129EC32E0B90117
:100E80000E948D0329EC32E084E4B9010E948D03B5
:100E900029EC32E082E5B9010E948D0329EC32E0B1
:100EA0008DE3B9010E948D038981282F30E0C901AB
:100EB000880F991F880F991F820F931F8D549D4F84
:100EC000FC01808129EC32E0B9010E948D03898107
:100ED000282F30E0C901880F991F880F991F820FB2
:100EE000931F8C549D4FDC018C9129EC32E0B901A9
:100EF0000E948D038981282F30E0C901880F991F36
:100F0000880F991F820F931F8B549D4FFC01808186
:100F100029EC32E0B9010E948D038981282F30E04D
:100F2000C901880F991F880F991F820F931F8A5438
:100F30009D4FDC018C9129EC32E0B9010E948D03B8
:100F400029EC32E08DE0B9010E948D0329EC32E0FA
:100F50008AE0B9010E948D0389818F5F898389812D
:100F6000882309F46ACF0F900F90CF91DF910895F5
:100F7000DF93CF930F92CDB7DEB719820AC0898174
:100F8000882F90E088539B4FFC01108289818F5FEE
:100F900089838981883098F3198229C08981882FB3
:100FA00090E0880F991F88549D4FFC011082898121
:100FB000882F90E0880F991F89549D4F20E8FC01ED
:100FC00020832981822F90E0222F30E0220F331FCF
:100FD00029543D4FF90130812981232B880F991F16
:100FE00089549D4FFC01208389818F5F898389818A
:100FF0008823A1F20F90CF91DF910895DF93CF93D3
:101000000F92CDB7DEB719820CC08981882F90E08E
:10101000880F991F88549D4FFC01108289818F5F32
:1010200089838981882389F3198230C02981822F9D
:10103000869586958695882F90E026952695269507
:10104000222F30E0220F331F28543D4FF9016081D9
:101050002981222F30E028533B4FF9012081222F94
:1010600030E04981442F50E047705070042E02C098
:10107000220F331F0A94E2F7262B880F991F8854FA
:101080009D4FFC01208389818F5F8983898188300E
:1010900068F219824FC029EC32E085E2B9010E9462
:1010A0008D0329EC32E084E2B9010E948D0329EC22
:1010B00032E080E4B9010E948D038981882F90E09D
:1010C000880F991F89549D4FFC01808129EC32E0E3
:1010D000B9010E948D0329EC32E084E4B9010E9439
:1010E0008D0329EC32E082E5B9010E948D0329ECE1
:1010F00032E08DE3B9010E948D038981882F90E051
:10110000880F991F88549D4FFC01808129EC32E0A3
:10111000B9010E948D0329EC32E08DE0B9010E94F3
:101120008D0329EC32E08AE0B9010E948D038981A8
:101130008F5F89838981882309F4ADCF0F90CF9188
:10114000DF9108951F920F920FB60F9211242F93E3
:101150008F939F93EF93FF93DF93CF93CDB7DEB73A
:101160008CE990E0FC0180818093B9028091BA0201
:10117000813009F58091BC02882379F08091B90211
:10118000813031F482E08093BA021092BB0202C037
:101190001092BA021092BC023AC08091B902803417
:1011A000B1F59091BC0281E08927882381F181E02B
:1011B0008093BC022CC08091BA02823041F58091AC
:1011C000BB02882F90E02091B90283549D4FFC010F
:1011D00020838091BB02823078F48091BB02882FFB
:1011E00090E0865A9E4FFC0190818091B902981739
:1011F00049F01092BA0206C08091BB028C3010F008
:101200001092BA028091BB028F5F8093BB028091E3
:10121000C702882371F08091B902843289F4109258
:10122000C70281E08093BA021092BB02109264015F
:1012300007C08091B902853219F481E08093C7021A
:101240008091C802882351F08091B9028A3069F4F4
:101250001092C80281E08093640107C08091B902B6
:101260008D3019F481E08093C802CF91DF91FF9116
:10127000EF919F918F912F910F900FBE0F901F9024
:1012800018951F920F920FB60F9211242F933F9330
:101290004F935F936F937F938F939F93AF93BF937E
:1012A000EF93FF93DF93CF930F92CDB7DEB780918B
:1012B0006401882399F029EC32E0CE010196B9014E
:1012C0000E94FF02882349F081E00E9487048CE994
:1012D00090E02981FC0120830AC000008AE990E0A7
:1012E0002AE930E0F90120812F7DFC0120830F9055
:1012F000CF91DF91FF91EF91BF91AF919F918F912E
:101300007F916F915F914F913F912F910F900FBE01
:101310000F901F9018951F920F920FB60F921124E5
:101320002F933F934F935F936F937F938F939F93ED
:10133000AF93BF93EF93FF93DF93CF93CDB7DEB718
:1013400080E00E9487048AE990E02AE930E0F90110
:1013500020812062FC012083CF91DF91FF91EF91EA
:10136000BF91AF919F918F917F916F915F914F91BD
:101370003F912F910F900FBE0F901F901895DF9304
:10138000CF93CDB7DEB78AEE99E09093E1048093D6
:10139000E00480EA9AE09093D1048093D00489EE2F
:1013A0009AE09093D9048093D80488E39AE09093CC
:1013B000E3048093E2048BEC9AE09093D30480934F
:1013C000D2048CE09BE09093DB048093DA04CF910D
:1013D000DF910895DF93CF9300D00F92CDB7DEB7A2
:1013E00089837B836A838091D3059091D405209172
:1013F000D3053091D405F90120812260FC012083BE
:101400008091D5059091D605FC0110828091D70579
:101410009091D80526E0FC0120838091D30590911E
:10142000D4052091D3053091D405F9012081237E84
:10143000FC0120838091D5059091D6052981FC017E
:1014400020838091DB059091DC052A813B81232F4D
:101450003327FC0120838091DD059091DE052A81F0
:10146000FC0120830F900F900F90CF91DF91089592
:10147000DF93CF9300D00F92CDB7DEB789837B8304
:101480006A838091DF059091E0052091DF0530911E
:10149000E005F90120812260FC0120838091E105B3
:1014A0009091E205FC0110828091E3059091E405A2
:1014B00026E0FC0120838091DF059091E0052091DA
:1014C000DF053091E005F90120812F7EFC012083AA
:1014D0008091DF059091E0052091DF053091E005D6
:1014E000F9012081277FFC0120838091DF05909105
:1014F000E0052091DF053091E005F90120812B7F87
:10150000FC0120838091E1059091E2052981FC0195
:1015100020838091E7059091E8052A813B81232F64
:101520003327FC0120838091E9059091EA052A8107
:10153000FC0120830F900F900F90CF91DF910895C1
:10154000DF93CF930F92CDB7DEB7898300008091F0
:10155000D3059091D405FC018081882F90E08072A2
:1015600090700097A1F38091D9059091DA052981B7
:10157000FC0120838091D3059091D4052091D3055F
:101580003091D405F90120812F7DFC0120830F903B
:10159000CF91DF910895DF93CF930F92CDB7DEB750
:1015A00089838091E5059091E6052981FC012083DE
:1015B0008091DF059091E0052091DF053091E005F5
:1015C000F90120812F7DFC0120830F90CF91DF91C5
:1015D0000895DF93CF9300D0CDB7DEB79A83898388
:1015E0008091D3059091D4052091D3053091D405F5
:1015F000F90120812F77FC0120838091D9059091FA
:10160000DA05FC01208189819A81FC0120830F90F9
:101610000F90CF91DF910895DF93CF9300D0CDB796
:10162000DEB79A8389838091DF059091E005209150
:10163000DF053091E005F90120812F77FC0120833F
:101640008091E5059091E605FC01208189819A81D0
:10165000FC0120830F900F90CF91DF910895DF93CD
:10166000CF93CDB7DEB780E19CE09093EB048093FD
:10167000EA0481E39CE09093EF048093EE04CF9121
:10168000DF910895DF93CF930F92CDB7DEB78091AE
:10169000BB059091BC052091BB053091BC05F901BB
:1016A00020812E7FFC0120838091BD059091BE0595
:1016B0002091BD053091BE05F90120812160FC011A
:1016C00020838091000590910105FC01099580918E
:1016D000BB059091BC052091BB053091BC05F9017B
:1016E00020812D7FFC0120838091BD059091BE0556
:1016F0002091BD053091BE05F90120812260FC01D9
:1017000020838091020590910305FC010995809149
:10171000C1059091C2052091C1053091C205F90122
:1017200020812F7EFC01208380910805909109057E
:10173000FC0109958091C1059091C2052091C105D8
:101740003091C205F90120812F7DFC012083809119
:10175000C3059091C4052091C3053091C405F901DA
:1017600020812062FC01208380910A0590910B0565
:10177000FC0109958091C1059091C2052091C10598
:101780003091C205F90120812F7BFC0120838091DB
:10179000C3059091C4052091C3053091C405F9019A
:1017A00020812064FC01208380910C0590910D051F
:1017B000FC0109958091C1059091C2052091C10558
:1017C0003091C205F90120812F77FC01208380919F
:1017D000C3059091C4052091C3053091C405F9015A
:1017E00020812068FC01208380910E0590910F05D7
:1017F000FC01099519820DC08981882F90E0880F1E
:10180000991F8C509B4FFC011182108289818F5F40
:1018100089838981863080F30F90CF91DF9108957D
:10182000DF93CF93CDB7DEB78091750590917605A4
:101830002091750530917605F9012081206CFC011D
:1018400020838091830590918405209183053091B8
:101850008405F90120812062FC012083CF91DF9172
:101860000895DF93CF93CDB7DEB780919705909120
:1018700098052091970530919805F9012081206CF9
:10188000FC0120838091A5059091A6052091A505D6
:101890003091A605F90120812062FC012083CF91BF
:1018A000DF910895DF93CF93CDB7DEB71092F504A3
:1018B0001092F404CF91DF910895DF93CF93CDB7C9
:1018C000DEB71092F7041092F604CF91DF910895DD
:1018D000DF93CF93CDB7DEB71092F9041092F804DE
:1018E000CF91DF910895DF93CF93CDB7DEB71092FC
:1018F000FB041092FA04CF91DF910895DF93CF9308
:10190000CDB7DEB71092FD041092FC04CF91DF91A9
:101910000895DF93CF93CDB7DEB71092FF041092F6
:10192000FE04CF91DF9108951F920F920FB60F9290
:1019300011248F939F93DF93CF93CDB7DEB7809120
:10194000F4049091F50401969093F5048093F404C7
:10195000CF91DF919F918F910F900FBE0F901F90AD
:1019600018951F920F920FB60F9211248F939F9389
:10197000DF93CF93CDB7DEB78091F6049091F70453
:1019800001969093F7048093F604CF91DF919F9195
:101990008F910F900FBE0F901F9018951F920F926E
:1019A0000FB60F9211248F939F93DF93CF93CDB7F0
:1019B000DEB78091F8049091F90401969093F904B0
:1019C0008093F804CF91DF919F918F910F900FBE7C
:1019D0000F901F9018951F920F920FB60F9211241F
:1019E0008F939F93DF93CF93CDB7DEB78091FA04A7
:1019F0009091FB0401969093FB048093FA04CF919D
:101A0000DF919F918F910F900FBE0F901F901895AF
:101A10001F920F920FB60F9211248F939F93DF9313
:101A2000CF93CDB7DEB78091FC049091FD04019671
:101A30009093FD048093FC04CF91DF919F918F914F
:101A40000F900FBE0F901F9018951F920F920FB618
:101A50000F9211248F939F93DF93CF93CDB7DEB76F
:101A60008091FE049091FF0401969093FF0480936F
:101A7000FE04CF91DF919F918F910F900FBE0F9039
:101A80001F901895DF93CF93CDB7DEB789E79DE020
:101A9000909301058093000587EA9DE090930305EC
:101AA0008093020585ED9DE09093050580930405E4
:101AB00083E09EE0909307058093060581E39EE016
:101AC00090930905809308058FE59EE090930B05A0
:101AD00080930A058DE89EE090930D0580930C0598
:101AE0008BEB9EE090930F0580930E05CF91DF91D5
:101AF0000895DF93CF93CDB7DEB78091EF05909136
:101B0000F0052091EF053091F005F9012081216069
:101B1000FC0120838091EB059091EC052091EB0571
:101B20003091EC05F90120812260FC012083809135
:101B3000EB059091EC052091EB053091EC05F90156
:101B400020812160FC012083CF91DF910895DF93F4
:101B5000CF93CDB7DEB78091EF059091F00520913E
:101B6000EF053091F005F90120812260FC0120830E
:101B70008091EB059091EC052091EB053091EC05FF
:101B8000F90120812860FC0120838091EB05909170
:101B9000EC052091EB053091EC05F90120812460E2
:101BA000FC012083CF91DF910895DF93CF93CDB7D0
:101BB000DEB78091EF059091F0052091EF0530910F
:101BC000F005F90120812460FC0120838091EB0560
:101BD0009091EC052091EB053091EC05F901208105
:101BE0002062FC0120838091EB059091EC0520910F
:101BF000EB053091EC05F90120812061FC01208387
:101C0000CF91DF910895DF93CF93CDB7DEB7809169
:101C1000EF059091F0052091EF053091F005F90165
:101C200020812860FC0120838091EB059091EC05D8
:101C30002091EB053091EC05F90120812068FC0131
:101C400020838091EB059091EC052091EB0530917C
:101C5000EC05F90120812064FC012083CF91DF9104
:101C60000895DF93CF93CDB7DEB78091EF059091C4
:101C7000F0052091EF053091F005F90120812061F8
:101C8000FC0120838091ED059091EE052091ED05FA
:101C90003091EE05F90120812260FC0120838091C2
:101CA000ED059091EE052091ED053091EE05F901DD
:101CB00020812160FC012083CF91DF910895DF9383
:101CC000CF93CDB7DEB78091EF059091F0052091CD
:101CD000EF053091F005F90120812062FC0120839D
:101CE0008091ED059091EE052091ED053091EE0586
:101CF000F90120812860FC0120838091ED059091FD
:101D0000EE052091ED053091EE05F901208124606A
:101D1000FC012083CF91DF910895DF93CF93CDB75E
:101D2000DEB78091EF059091F0052091EF0530919D
:101D3000F005F90120812064FC0120838091ED05EC
:101D40009091EE052091ED053091EE05F90120818D
:101D50002062FC0120838091ED059091EE05209199
:101D6000ED053091EE05F90120812061FC01208311
:101D7000CF91DF910895DF93CF93CDB7DEB78091F8
:101D8000EF059091F0052091EF053091F005F901F4
:101D900020812068FC0120838091ED059091EE0563
:101DA0002091ED053091EE05F90120812068FC01BC
:101DB00020838091ED059091EE052091ED05309105
:101DC000EE05F90120812064FC012083CF91DF9191
:101DD0000895DF93CF930F92CDB7DEB78091C705FB
:101DE0009091C8052091C7053091C805F90120815F
:101DF0002E7FFC0120838091C9059091CA05209116
:101E0000C9053091CA05F90120812160FC012083B8
:101E10008091C7059091C8052091C7053091C805EC
:101E2000F90120812D7FFC0120838091C9059091CB
:101E3000CA052091C9053091CA05F90120812260A7
:101E4000FC0120838091C7059091C8052091C705AA
:101E50003091C805F90120812B7FFC0120838091FE
:101E6000C9059091CA052091C9053091CA05F901AB
:101E700020812460FC0120838091C7059091C805D2
:101E80002091C7053091C805F9012081277FFC0109
:101E900020838091C9059091CA052091C905309190
:101EA000CA05F90120812860FC01208319820AC03B
:101EB0008981882F90E0805F9A4FFC011082898190
:101EC0008F5F89838981843098F30F90CF91DF9160
:101ED0000895DF93CF93CDB7DEB78091CB05909176
:101EE000CC05FC018081882F90E081709070009774
:101EF00021F481E08093100502C0109210058091BA
:101F0000CB059091CC05FC018081882F90E08270F8
:101F10009070009721F481E08093110502C0109227
:101F200011058091CB059091CC05FC018081882F13
:101F300090E084709070009721F481E08093120506
:101F400002C0109212058091CB059091CC05FC0146
:101F50008081882F90E088709070009721F481E054
:101F60008093130502C010921305CF91DF9108955D
:101F7000DF93CF930F92CDB7DEB78091A9059091F3
:101F8000AA052091A9053091AA05F9012081277F92
:101F9000FC0120838091AB059091AC052091AB05AD
:101FA0003091AC05F90120812860FC0120838091EB
:101FB000A9059091AA052091A9053091AA05F901DA
:101FC00020812B7FFC0120838091AB059091AC0593
:101FD0002091AB053091AC05F90120812460FC0112
:101FE00020838091CD059091CE052091CD05309133
:101FF000CE05F90120812D7FFC0120838091CF0542
:102000009091D0052091CF053091D005F901208124
:102010002260FC0120838091B5059091B605209146
:10202000B5053091B605F90120812E7FFC01208392
:102030008091B7059091B8052091B7053091B8050A
:10204000F90120812160FC0120838091B5059091E8
:10205000B6052091B5053091B605F90120812D7F97
:10206000FC0120838091B7059091B8052091B705B8
:102070003091B805F90120812260FC012083809114
:10208000B5059091B6052091B5053091B605F901D9
:1020900020812B7FFC0120838091B7059091B805AA
:1020A0002091B7053091B805F90120812460FC0129
:1020B00020838091B5059091B6052091B5053091AA
:1020C000B605F9012081277FFC0120838091B705A7
:1020D0009091B8052091B7053091B805F90120819C
:1020E0002860FC0120838091B5059091B605209170
:1020F000B5053091B605F90120812F7EFC012083C2
:102100008091B7059091B8052091B7053091B80539
:10211000F90120812061FC01208319820AC0898194
:10212000882F90E08C5E9A4FFC01108289818F5F2E
:1021300089838981883098F30F90CF91DF9108953A
:10214000DF93CF93CDB7DEB78091C7059091C805D7
:102150002091C7053091C805F90120812F7EFC012F
:1021600020838091C9059091CA052091C9053091BD
:10217000CA05F90120812061FC0120838091C705F7
:102180009091C8052091C7053091C805F9012081BB
:102190002F7DFC0120838091C9059091CA05209173
:1021A000C9053091CA05F90120812062FC01208314
:1021B0008091C7059091C8052091C7053091C80549
:1021C000F90120812F7BFC0120838091C90590912A
:1021D000CA052091C9053091CA05F9012081206402
:1021E000FC0120838091C7059091C8052091C70507
:1021F0003091C805F90120812F77FC01208380915F
:10220000C9059091CA052091C9053091CA05F90107
:1022100020812068FC012083CF91DF910895DF9316
:10222000CF93CDB7DEB78091AD059091AE05FC019F
:102230008081882F90E088709070009721F481E071
:102240008093140502C0109214058091AD05909101
:10225000AE05FC018081882F90E08470907000971B
:1022600021F481E08093150502C01092150580913C
:10227000D1059091D205FC018081882F90E0827079
:102280009070009721F481E08093160502C01092AF
:1022900016058091B9059091BA05FC018081882FBF
:1022A00090E081709070009721F481E08093170591
:1022B00002C0109217058091B9059091BA05FC01F2
:1022C0008081882F90E082709070009721F481E0E7
:1022D0008093180502C0109218058091B90590915D
:1022E000BA05FC018081882F90E08470907000977F
:1022F00021F481E08093190502C0109219058091A4
:10230000B9059091BA05FC018081882F90E0887012
:102310009070009721F481E080931A0502C010921A
:102320001A058091B9059091BA05FC018081882F2A
:1023300090E080719070009721F481E080931B05FC
:1023400002C010921B05CF91DF910895DF93CF93C8
:102350000F92CDB7DEB719820AC08981882F90E02D
:102360008C5E9A4FFC01108289818F5F89838981FD
:10237000883098F30F90CF91DF910895DF93CF933A
:102380000F92CDB7DEB719828091CB059091CC0525
:10239000FC018081882F90E080719070009719F483
:1023A0008981816089838091CB059091CC05FC0166
:1023B0008081882F90E080729070009719F4898155
:1023C000826089838091CB059091CC05FC0180814E
:1023D000882F90E080749070009719F48981846050
:1023E00089838091CB059091CC05FC018081882365
:1023F0001CF089818860898389810F90CF91DF915A
:102400000895DF93CF93CDB7DEB70E94C3250E9416
:1024100005180E942E19FFCFDF93CF930F92CDB7EF
:10242000DEB78091BB059091BC052091BB05309132
:10243000BC05F90120812062FC01208384E992E13E
:1024400090931D0580931C058091BB059091BC0560
:102450002091BB053091BC05F90120812064FC016D
:1024600020838CEB92E190931F0580931E05809151
:10247000BB059091BC052091BB053091BC05F901CD
:1024800020812068FC01208384EE92E19093210555
:10249000809320058091CD059091CE052091CD05AA
:1024A0003091CE05F90120812160FC0120838CE070
:1024B00093E1909323058093220519820AC08981B4
:1024C000882F90E08C5D9A4FFC01108289818F5F8C
:1024D00089838981843098F30F90CF91DF9108959B
:1024E000DF93CF930F92CDB7DEB7198216C08981E3
:1024F000882F90E0880F991F845E9A4FFC012081FD
:1025000031818981882F90E08C5D9A4FFC01808118
:10251000F901099589818F5F89838981843038F336
:102520000F90CF91DF910895DF93CF930F92CDB7A6
:10253000DEB789838981882371F08091BD059091F0
:10254000BE052091BD053091BE05F90120812F7D8A
:10255000FC0120830DC08091BD059091BE052091A6
:10256000BD053091BE05F90120812062FC01208368
:102570000F90CF91DF910895DF93CF930F92CDB756
:10258000DEB789838981882371F08091BD059091A0
:10259000BE052091BD053091BE05F90120812F7B3C
:1025A000FC0120830DC08091BD059091BE05209156
:1025B000BD053091BE05F90120812064FC01208316
:1025C0000F90CF91DF910895DF93CF930F92CDB706
:1025D000DEB789838981882371F08091BD05909150
:1025E000BE052091BD053091BE05F90120812F77F0
:1025F000FC0120830DC08091BD059091BE05209106
:10260000BD053091BE05F90120812068FC012083C1
:102610000F90CF91DF910895DF93CF930F92CDB7B5
:10262000DEB789838981882371F08091CF059091ED
:10263000D0052091CF053091D005F90120812E7F62
:10264000FC0120830DC08091CF059091D005209191
:10265000CF053091D005F90120812160FC01208354
:102660000F90CF91DF910895DF93CF93CDB7DEB771
:102670008091A9059091AA052091A9053091AA05FC
:10268000F90120812260FC0120838091AB059091AB
:10269000AC052091AB053091AC05F90120812D7F6F
:1026A000FC01208310922805CF91DF910895DF93DC
:1026B000CF93CDB7DEB7809128050E946213CF91EA
:1026C000DF910895DF93CF930F92CDB7DEB7898363
:1026D0008981882371F08091AB059091AC052091A0
:1026E000AB053091AC05F90120812260FC0120830B
:1026F0000DC08091AB059091AC052091AB05309158
:10270000AC05F90120812D7FFC0120830F90CF9132
:10271000DF910895DF93CF930F92CDB7DEB780910D
:10272000A9059091AA052091A9053091AA05F90162
:1027300020812068FC01208382E194E1909334059C
:10274000809333058091A9059091AA052091A90550
:102750003091AA05F90120812064FC0120838AE3DD
:1027600094E190933605809335058091A905909169
:10277000AA052091A9053091AA05F90120812062BE
:10278000FC01208382E694E190933805809337051D
:102790008091A9059091AA052091A9053091AA05DB
:1027A000F90120812061FC0120838AE894E1909363
:1027B0003A058093390519820AC08981882F90E0F3
:1027C000855C9A4FFC01108289818F5F89838981A2
:1027D000843098F30F90CF91DF910895DF93CF93DA
:1027E0000F92CDB7DEB7198216C08981882F90E08D
:1027F000880F991F8D5C9A4FFC012081318189815E
:10280000882F90E0855C9A4FFC018081F901099541
:1028100089818F5F89838981843038F30F90CF91CC
:10282000DF910895DF93CF930F92CDB7DEB7898301
:102830008981882371F08091AB059091AC0520913E
:10284000AB053091AC05F90120812F77FC01208385
:102850000DC08091AB059091AC052091AB053091F6
:10286000AC05F90120812068FC0120830F90CF91F5
:10287000DF910895DF93CF930F92CDB7DEB78983B1
:102880008981882371F08091AB059091AC052091EE
:10289000AB053091AC05F90120812F7BFC01208331
:1028A0000DC08091AB059091AC052091AB053091A6
:1028B000AC05F90120812064FC0120830F90CF91A9
:1028C000DF910895DF93CF930F92CDB7DEB7898361
:1028D0008981882371F08091AB059091AC0520919E
:1028E000AB053091AC05F90120812F7DFC012083DF
:1028F0000DC08091AB059091AC052091AB05309156
:10290000AC05F90120812062FC0120830F90CF915A
:10291000DF910895DF93CF930F92CDB7DEB7898310
:102920008981882371F08091AB059091AC0520914D
:10293000AB053091AC05F90120812F7EFC0120838D
:102940000DC08091AB059091AC052091AB05309105
:10295000AC05F90120812061FC0120830F90CF910B
:10296000DF910895DF93CF93CDB7DEB783E795E18D
:10297000909344058093430587EA95E1909346053B
:102980008093450581E396E1909348058093470540
:1029900085E696E190934A0580934905CF91DF91B2
:1029A0000895DF93CF930F92CDB7DEB78091AF0537
:1029B0009091B0052091AF053091B005F9012081CB
:1029C0002460FC0120838091AF059091B005209197
:1029D000AF053091B005F90120812860FC0120830A
:1029E000209143053091440581E4F901099588E37C
:1029F00097E19093500580934F058091CD0590917C
:102A0000CE052091CD053091CE05F90120812860B9
:102A1000FC0120838091CD059091CE052091CD05BC
:102A20003091CE05F90120812061FC0120832091A5
:102A300045053091460581E4F90109958DE997E155
:102A40009093520580935105198215C08981882F72
:102A500090E0880F991F815C9A4FFC011082898158
:102A6000882F90E0880F991F805C9A4FFC0110829C
:102A700089818F5F89838981823040F30F90CF9164
:102A8000DF910895DF93CF930F92CDB7DEB7198210
:102A900023C08981882F90E0880F991F815B9A4F0E
:102AA000FC01208131818981882F90E0880F991F56
:102AB000815C9A4FFC0140818981882F90E0880FCA
:102AC000991F805C9A4FFC019081842F692FF90136
:102AD000099589818F5F898389818230D0F20F9037
:102AE000CF91DF910895DF93CF930F92CDB7DEB7EB
:102AF00089838981813439F58091AF059091B00542
:102B00002091AF053091B005F90120812061FC01D1
:102B1000208380916505909166052091650530912F
:102B20006605F90120812062FC0120838091650502
:102B3000909166052091650530916605F901208127
:102B40002F7EFC0120830F90CF91DF910895DF93BA
:102B5000CF930F92CDB7DEB789838981813441F558
:102B60008091AF059091B0052091AF053091B005EF
:102B7000F90120812062FC012083809173059091EE
:102B800074052091730530917405F9012081206846
:102B9000FC01208380917305909174052091730549
:102BA00030917405F90120812F7BFC01208355C0F1
:102BB0008981823441F58091AF059091B0052091D3
:102BC000AF053091B005F90120812064FC0120831C
:102BD000809173059091740520917305309174056F
:102BE000F90120812062FC0120838091730590917E
:102BF00074052091730530917405F90120812F7EB1
:102C0000FC0120832AC08981833439F58091AF0586
:102C10009091B0052091AF053091B005F901208168
:102C20002068FC01208380917305909174052091A8
:102C3000730530917405F90120812860FC0120831F
:102C400080917305909174052091730530917405FE
:102C5000F90120812B7FFC0120830F90CF91DF9120
:102C60000895DF93CF930F92CDB7DEB78983898123
:102C7000813439F58091AF059091B0052091AF0571
:102C80003091B005F90120812068FC0120838091FA
:102C90008705909188052091870530918805F90175
:102CA00020812062FC012083809187059091880516
:102CB0002091870530918805F90120812F7EFC0144
:102CC00020830F90CF91DF910895DF93CF930F92E0
:102CD000CDB7DEB789838981813441F58091C10503
:102CE0009091C2052091C1053091C205F901208162
:102CF0002860FC0120838091950590919605209194
:102D0000950530919605F90120812068FC0120830A
:102D100080919505909196052091950530919605A5
:102D2000F90120812F7BFC01208355C089818234E9
:102D300041F58091C1059091C2052091C105309166
:102D4000C205F90120812061FC0120838091950555
:102D5000909196052091950530919605F901208175
:102D60002062FC0120838091950590919605209129
:102D7000950530919605F90120812F7EFC01208375
:102D80002AC08981833439F58091C1059091C205AB
:102D90002091C1053091C205F90120812062FC011A
:102DA000208380919505909196052091950530910D
:102DB0009605F90120812860FC012083809195050A
:102DC000909196052091950530919605F901208105
:102DD0002B7FFC0120830F90CF91DF910895DF932B
:102DE000CF9300D00F92CDB7DEB78B838B81482F66
:102DF00050E02DE830E0429FC001439F900D529F6C
:102E0000900D11249A83898389819A81892F99272A
:102E10009A8389838B81882F90E0880F991F29815D
:102E20003A81820F931F9A83898389810F900F9033
:102E30000F90CF91DF910895DF93CF9300D000D012
:102E4000CDB7DEB79A8389837C836B838B819C812A
:102E5000FC018081853628F08B819C8124E6FC0171
:102E600020830F900F900F900F90CF91DF910895D6
:102E70000F931F93DF93CF9300D0CDB7DEB7898335
:102E80006A839E012E5F3F4FCE010196B9010E94D9
:102E90001C178981882F90E081709070882371F0D1
:102EA0008091B1059091B2052091B1053091B205A4
:102EB000F90120812460FC0120830DC08091B105BF
:102EC0009091B2052091B1053091B205F9012081B0
:102ED0002B7FFC0120838981882F90E08270907085
:102EE000009771F08091B1059091B2052091B105E4
:102EF0003091B205F90120812860FC0120830DC0CA
:102F00008091B1059091B2052091B1053091B20543
:102F1000F9012081277FFC01208300916B0510912E
:102F20006C058A810E94EF16F80180830F900F9044
:102F3000CF91DF911F910F9108950F931F93DF930E
:102F4000CF9300D0CDB7DEB789836A839E012E5F11
:102F50003F4FCE010196B9010E941C178981882F2D
:102F600090E081709070882371F08091CF059091EE
:102F7000D0052091CF053091D005F901208128603E
:102F8000FC0120830DC08091CF059091D005209148
:102F9000CF053091D005F9012081277FFC012083E6
:102FA0008981882F90E082709070009771F08091F5
:102FB000CF059091D0052091CF053091D005F90132
:102FC00020812061FC0120830DC08091CF0590916C
:102FD000D0052091CF053091D005F90120812F7EB9
:102FE000FC01208300917B0510917C058A810E9461
:102FF000EF16882F90E0F801918380830F900F9057
:10300000CF91DF911F910F910895DF93CF93CDB7AB
:10301000DEB7F8940E9492010E949E000E94420B2B
:103020000E94B80F0E94A0100E94E90E0E940C128C
:103030000E9470120E9434130E9457130E948A1338
:103040000E94EE130E94D1140E94421580915B05EC
:1030500090915C05FC0109958CE00E9420040E947F
:103060003418CF91DF9108950F931F93DF93CF937F
:103070000F92CDB7DEB788E08093D00383E08093D2
:10308000D40384E68093D1031092D3031092D20329
:1030900082E08093D50381E08093D6031092D90318
:1030A0008EE18093D8031092DA0388E08093DB03EB
:1030B00083E08093DF0384E68093DC031092DE03D9
:1030C0001092DD0382E08093E00381E08093E103CE
:1030D0001092E4038EE18093E30381E08093E503A3
:1030E00088E08093E60383E08093EA0384E680939C
:1030F000E7031092E9031092E80382E08093EB0368
:1031000081E08093EC031092EF0384E18093EE035F
:1031100085E08093F00388E08093F10383E080935F
:10312000F50384E68093F2031092F4031092F30304
:1031300082E08093F60382E08093F7031092FA0313
:103140008EE18093F90382E08093FB031092FD03EC
:103150001092FE031092FF0383E08093020410920A
:1031600003041092040410920504109206041092B5
:103170000704109208041092090410920A04109295
:103180000B0410920C0410920D0410920E04109275
:103190000F04109210041092110410921204109255
:1031A0001304109214041092150410921604109235
:1031B0001704109218041092CC048091CC048093D0
:1031C000FC0381E08093C8041092C90481E08093DD
:1031D000CB0481E08093000481E08093010490910E
:1031E000190481E08927882399F11092950410929F
:1031F000940419820FC08981082F10E089810E94F0
:103200008222282FC801865E9B4FFC012083898182
:103210008F5F89838981883770F389EA9BE1909376
:103220009704809396048AE59CE190939904809397
:1032300098048FE39DE190939B0480939A0480EF20
:103240009DE190939D0480939C0481E080931904F8
:103250000F90CF91DF911F910F910895DF93CF933E
:10326000CDB7DEB778940E940F110E94690F0E94BB
:10327000BB0190939304809392049091A70481E002
:103280008927882391F09091540581E0892788232C
:1032900019F00E9474190BC00E9434180E94DE01BC
:1032A000909393048093920402C00E94491F0E944D
:1032B000F22280916401882321F081E080933D0512
:1032C00002C010923D050E9413240E9442150E94E4
:1032D00070120E9457130E94EE130E9424050E9450
:1032E000A6060E94FE07BECFDF93CF93CDB7DEB711
:1032F0008091920490919304FC01818184708823D1
:1033000021F081E08093090409C080910904882399
:1033100019F081E080930A041092090480919204CC
:1033200090919304FC0181818170882321F081E0D8
:1033300080930B0409C080910B04882319F081E06D
:1033400080930C0410920B0480910A048823C1F12D
:1033500080919404909195040196909395048093A4
:10336000940480919404909195048430910524F004
:1033700010929504109294040E944A228091940421
:10338000909195048130910579F482E08093BA049C
:1033900081E48093BB0482E08093BC048EE180933F
:1033A000BD0481E08093020480919404909195047F
:1033B0008330910519F481E08093CE0410920A04C1
:1033C00080910C048823D9F0809194049091950405
:1033D0001816190654F4809194049091950401975D
:1033E000909395048093940406C083E090E09093BA
:1033F0009504809394040E944A2210920C048091B8
:10340000940490919504880F991F8A569B4FFC0154
:1034100080819181FC01099580919204909193049F
:10342000FC01808180748823B1F080919204909196
:103430009304FC0180818078882369F48091920450
:1034400090919304FC0180818072882321F481E0B3
:103450008093130409C080911304882319F081E03C
:10346000809314041092130480911404882381F033
:103470008091CC04882F90E021E0009709F420E0AF
:1034800081E08227882F90E08093CC04109214046E
:103490008091920490919304FC0181818270882331
:1034A000C9F01092D1031092DC0388E08093D0031E
:1034B00088E08093DB0383E08093020483E08093C1
:1034C000BA0484E68093BB0483E08093BC0484E662
:1034D0008093BD0480ED93E00E94B01F8BED93E0DC
:1034E0000E94B01F86EE93E00E94B01F9091CC0422
:1034F00081E08927882339F08091FC03882319F023
:1035000081E08093FD038091FD03882339F088E0FA
:103510008093F1031092F2031092FD038091CC048A
:103520008093FC039091CC0481E08927882351F09B
:1035300080919404909195048330910519F00E9434
:103540000B2260C08091CC04882341F480919404C4
:10355000909195048330910509F054C080919404B2
:10356000909195048330910539F580919204909162
:103570009304FC0181818072882339F081E080937B
:10358000B8048AE08093B9043DC080919204909180
:103590009304FC0181818074882339F082E0809358
:1035A000B8048CE08093B9042DC083E08093B80404
:1035B00084E68093B90426C080919204909193048C
:1035C000FC0181818072882339F081E08093B80406
:1035D00084E18093B90416C0809192049091930481
:1035E000FC0181818074882339F082E08093B804E3
:1035F00084E18093B90406C083E08093B80484E634
:103600008093B9048091920490919304FC0180818D
:103610008870882369F08091940490919504833098
:10362000910531F481E08093BE0484E18093BF046E
:10363000809194049091950483309105F9F48091E0
:10364000920490919304FC01808184708823B1F0EE
:1036500082E080933F0587E08093400582E080937D
:10366000410587E08093420588E08093D003109263
:10367000D10388E08093DB031092DC03809118056E
:10368000882351F08091B804813031F483E0809335
:10369000B80484E68093B90480911905882351F019
:1036A0008091B804823031F483E08093B80484E6DA
:1036B0008093B90480911805882369F090910404DF
:1036C00081E08927882349F081E08093030481E029
:1036D0008093040402C01092040480911905882389
:1036E00069F09091060481E08927882349F081E000
:1036F0008093050481E08093060402C010920604C2
:1037000080910304882329F0809107048F5F8093C0
:103710000704809107048F3030F010920704109254
:1037200003041092CC0480910504882329F0809131
:1037300008048F5F80930804809108048F3030F074
:1037400010920804109205041092CC04CF91DF91DE
:103750000895DF93CF93CDB7DEB78EE18093D80382
:103760008EE18093E30382E08093F60380919204DC
:1037700090919304FC0180818270882351F081E054
:103780008093D90381E08093E40381E08093EF0389
:1037900019C08091920490919304FC0180818470FF
:1037A000882351F082E08093D90382E08093E40380
:1037B00082E08093EF0306C01092D9031092E403D5
:1037C0001092EF0383E08093BA0484E68093BB04F5
:1037D00083E08093BC0484E68093BD0483E08093FF
:1037E00002048091920490919304FC018081817085
:1037F000882321F081E080930D0409C080910D049D
:10380000882319F081E080930E0410920D048091BA
:103810000E04882381F08091CA04882F90E021E073
:10382000009709F420E081E08227882F90E08093C0
:10383000CA0410920E048091920490919304FC01AA
:1038400081818870882321F081E08093170409C06A
:1038500080911704882319F081E080931804109256
:10386000170480911804882381F08091CE04882F5A
:1038700090E021E0009709F420E081E08227882F82
:1038800090E08093CE04109218048091000482305E
:1038900031F480910104883011F41092CD0481E05C
:1038A0008093C8041092C90481E08093CB04CF9127
:1038B000DF910895DF93CF93CDB7DEB783E2809396
:1038C000D80383E28093E30382E08093F603809140
:1038D000920490919304FC0180818270882339F0D6
:1038E00081E08093D90381E08093E40314C0809148
:1038F000920490919304FC0180818470882339F0B4
:1039000082E08093D90382E08093E40304C01092A4
:10391000D9031092E4031092EF03809192049091E6
:103920009304FC0181818870882321F081E08093D9
:10393000110409C080911104882319F081E080935B
:103940001204109211048091920490919304FC014E
:1039500080818870882321F081E080930F0409C062
:1039600080910F04882319F081E080931004109255
:103970000F0480911004882391F180910204833018
:1039800021F080910204882381F481E08093020475
:1039900082E08093BA0481E48093BB0482E0809348
:1039A000BC048EE18093BD0417C080910204813075
:1039B00021F080910204823079F483E08093020444
:1039C00083E08093BA0484E68093BB0483E0809311
:1039D000BC0484E68093BD041092100435C080912D
:1039E0001204882389F180910204833021F08091B0
:1039F0000204882381F482E08093020481E08093B2
:103A0000BA0481E48093BB0481E08093BC048EE11E
:103A10008093BD0417C080910204813021F0809111
:103A20000204823079F483E08093020483E080937F
:103A3000BA0484E68093BB0483E08093BC0484E6EC
:103A40008093BD041092120480911705882311F011
:103A50001092CC0480911605882319F081E08093A0
:103A6000CC0481E08093C8041092C9041092CA0467
:103A70001092CB041092CE04CF91DF910895DF9382
:103A8000CF93CDB7DEB78FE08093D8038FE08093DC
:103A9000E30381E08093F603809192049091930474
:103AA000FC0180818270882351F081E08093D903EA
:103AB00081E08093E40381E08093EF0319C080915B
:103AC000920490919304FC0180818470882351F0CA
:103AD00082E08093D90382E08093E40382E08093C4
:103AE000EF0306C01092D9031092E4031092EF0383
:103AF00083E08093BA0484E68093BB0483E08093E0
:103B0000BC0484E68093BD0483E08093020480912A
:103B1000920490919304FC0180818170882321F0AC
:103B200081E080930D0409C080910D04882319F071
:103B300081E080930E0410920D0480910E0488237E
:103B400081F08091CA04882F90E021E0009709F469
:103B500020E081E08227882F90E08093CA041092B1
:103B60000E048091920490919304FC0181818870ED
:103B7000882321F081E08093170409C08091170405
:103B8000882319F081E08093180410921704809123
:103B90001804882381F08091CE04882F90E021E0E2
:103BA000009709F420E081E08227882F90E080933D
:103BB000CE041092180480910004823031F4809178
:103BC0000104883011F41092CD0481E08093C80480
:103BD0001092C90481E08093CB04CF91DF910895C6
:103BE000DF93CF93CDB7DEB784E18093D80384E130
:103BF0008093E30382E08093F60380919204909196
:103C00009304FC0180818270882351F081E08093CD
:103C1000D90381E08093E40381E08093EF0319C02E
:103C20008091920490919304FC0180818470882398
:103C300051F082E08093D90382E08093E40382E034
:103C40008093EF0306C01092D9031092E403109200
:103C5000EF038091920490919304FC018081817024
:103C6000882321F081E080930D0409C080910D0428
:103C7000882319F081E080930E0410920D04809146
:103C80000E04882381F08091CA04882F90E021E0FF
:103C9000009709F420E081E08227882F90E080934C
:103CA000CA0410920E048091000480930104809154
:103CB000920490919304FC01808180728823B9F072
:103CC0008091920490919304FC01808180718823FB
:103CD00071F48091920490919304FC01808180742E
:103CE000882329F41092C8041092C90443C080911B
:103CF000920490919304FC01808180788823D1F014
:103D00008091920490919304FC01808180718823BA
:103D100089F48091920490919304FC0180818074D5
:103D2000882341F481E08093C8041092C904109262
:103D3000CE0420C08091920490919304FC01808174
:103D400080718823B9F08091920490919304FC01D2
:103D500080818078882371F48091920490919304FB
:103D6000FC0180818072882329F41092C80481E0CC
:103D70008093C9048091C804882351F09091C904AC
:103D800081E08927882321F081E0809300041DC011
:103D90009091C80481E08927882341F08091C9046B
:103DA000882321F082E0809300040FC09091C80422
:103DB00081E08927882349F09091C90481E089270F
:103DC000882319F088E080930004809192049091F8
:103DD0009304FC0181818071882321F081E080932C
:103DE000150409C080911504882319F081E080939F
:103DF00016041092150480911604882381F0809196
:103E0000CD04882F90E021E0009709F420E081E0C4
:103E10008227882F90E08093CD0410921604809121
:103E2000920490919304FC0181818870882321F091
:103E300081E08093170409C080911704882319F04A
:103E400081E080931804109217048091180488234D
:103E500081F08091CE04882F90E021E0009709F452
:103E600020E081E08227882F90E08093CE0410929A
:103E7000180480910004823031F48091010488306C
:103E800011F41092CD0481E08093CB04CF91DF91A7
:103E90000895DF93CF930F92CDB7DEB7198217C085
:103EA0008981882F90E0880F991F815C9A4F23E0C9
:103EB000FC0120838981882F90E0880F991F805C06
:103EC0009A4F24E6FC01208389818F5F8983898151
:103ED000823030F319820AC08981882F90E08C5D8E
:103EE0009A4FFC01108289818F5F89838981843098
:103EF00098F3198217C08981882F90E0880F991F45
:103F000088549B4F23E0FC0120838981882F90E017
:103F1000880F991F87549B4F24E6FC0120838981D9
:103F20008F5F89838981883030F319820AC0898143
:103F3000882F90E088539B4FFC01108289818F5F0E
:103F400089838981883098F30E94DE0190939304DD
:103F5000809392040E9434180F90CF91DF910895BE
:103F6000DF93CF9300D0CDB7DEB79A838983898161
:103F70009A81FC0181858130D1F489819A81FC018B
:103F80008081883049F489819A81FC01108289817D
:103F90009A81FC01118227C089819A81FC0180816C
:103FA000813009F589819A81FC0110821CC08981C8
:103FB0009A81FC018081882331F089819A81FC01FA
:103FC0008081823081F489819A8121E0FC01208303
:103FD00089819A81FC0181810E94BD22282F8981DB
:103FE0009A81FC01278389819A81FC018185823035
:103FF000E1F489819A81FC018081883051F48981C2
:104000009A8124E0FC01208389819A81FC0111823C
:1040100028C089819A81FC018081853011F58981D0
:104020009A8124E0FC0120831CC089819A81FC01D3
:104030008081843031F089819A81FC0180818630D1
:1040400081F489819A8125E0FC01208389819A810C
:10405000FC0181810E94BD22282F89819A81FC0167
:10406000278389819A81FC018185833029F48981A4
:104070009A8128E0FC01208389819A81FC0180815A
:10408000882F90E08430910509F4C4C085309105F3
:104090005CF48130910509F45AC08230910509F42D
:1040A000AAC0009771F06CC18630910509F44BC12C
:1040B000863091050CF4F4C08830910509F452C1A2
:1040C0005FC189819A81FC01828193819C012F5F6C
:1040D0003F4F89819A81FC013383228389819A81B0
:1040E000FC012281338189819A81FC018581882F9D
:1040F00090E02817390778F089819A81FC01818145
:104100008F5F282F89819A81FC01218389819A817F
:10411000FC011382128289819A81FC018181282FFE
:10412000332727FD309589819A81FC018085882F6E
:1041300090E0281739072CF089819A8122E0FC0150
:10414000208389819A8121E0FC01248319C189811E
:104150009A81FC01828193819C012F5F3F4F89816D
:104160009A81FC013383228389819A81FC01228117
:10417000338189819A81FC018681882F90E02817FC
:104180003907F0F089819A81FC018781282F2F5F00
:1041900089819A81FC01278389819A81FC01878129
:1041A000882F90E0865E9B4FFC018081282F8981BB
:1041B0009A81FC01218389819A81FC0113821282F8
:1041C00089819A8121E0FC01248389819A81FC0103
:1041D000818182300CF0D1C089819A81FC011182E9
:1041E00089819A8128E0FC01208389819A8123E0DA
:1041F000FC012483C5C089819A8121E0FC012483CC
:1042000089819A81FC018085282F89819A81FC010E
:104210002183B6C089819A81FC01828193819C01AE
:104220002F5F3F4F89819A81FC01338322838981EB
:104230009A81FC012281338189819A81FC018581E7
:10424000882F90E02817390778F089819A81FC013E
:1042500081818F5F282F89819A81FC012183898147
:104260009A81FC011382128289819A81FC018181E9
:10427000282F332727FD309589819A81FC0180857D
:10428000882F90E0281739072CF089819A8126E041
:10429000FC01208389819A8122E0FC01248370C083
:1042A00089819A81FC01828193819C012F5F3F4F1C
:1042B00089819A81FC013383228389819A81FC015F
:1042C0002281338189819A81FC018681882F90E047
:1042D00028173907F0F089819A81FC018781282FFE
:1042E0002F5F89819A81FC01278389819A81FC0152
:1042F0008781882F90E0865E9B4FFC018081282F6C
:1043000089819A81FC01218389819A81FC01138230
:10431000128289819A8122E0FC01248389819A8119
:10432000FC01818182305CF589819A81FC011182D6
:1043300089819A8128E0FC01208389819A8123E088
:10434000FC0124831DC089819A8122E0FC01248321
:1043500089819A81FC018085282F89819A81FC01BD
:1043600021830EC089819A8123E0FC012483898105
:104370009A8124E6FC01218303C0000001C00000F3
:1043800089819A81FC018285823069F489819A81D0
:10439000FC0184818093B80489819A81FC01818128
:1043A0008093B90433C089819A81FC01828585306C
:1043B00069F489819A81FC0184818093BE0489819A
:1043C0009A81FC0181818093BF0420C089819A81F8
:1043D000FC018285882F90E029813A81F9012481AE
:1043E000880F991F815C9A4FFC01208389819A81F3
:1043F000FC018285882F90E029813A81F901218191
:10440000880F991F805C9A4FFC0120830F900F90BA
:10441000CF91DF910895DF93CF93CDB7DEB7809131
:10442000920490919304FC0181818072882369F049
:1044300081E08093B80484E68093B90484E180939A
:10444000D8038EE18093E30322C08091920490917F
:104450009304FC0181818074882369F082E0809359
:10446000B80484E68093B9048EE18093D80384E194
:104470008093E3030CC083E08093B80484E68093C8
:10448000B9048EE18093D8038EE18093E303CF914A
:10449000DF910895DF93CF93CDB7DEB783E08093AC
:1044A000BA0484E68093BB0483E08093BC0484E672
:1044B0008093BD0483E0809302041092090410925B
:1044C0000A0410920B0410920C0410920D04109226
:1044D0000E0410920F041092100410921104109206
:1044E00012041092130410921404109215041092E6
:1044F000160410921704109218041092FE03CF9124
:10450000DF910895DF93CF930F92CDB7DEB7898304
:104510008981882F90E0AC01475750408981882FCE
:1045200090E09C0127573040429FC001439F900D6F
:10453000529F900D1124AA2797FDA095BA2FBC0178
:10454000CD010E94E32BDC01CB012091650130916C
:1045500066014091670150916801BC01CD010E9444
:10456000B92ADC01CB01BC01CD010E94E528DC01A8
:10457000CB010F90CF91DF910895DF93CF930F92EE
:10458000CDB7DEB789838981882F90E0A0E0B0E0C5
:10459000BC01CD010E94952CDC01CB01BC01CD01F9
:1045A0000E94322FDC01CB01BC01CD0126E636E6AC
:1045B0004EE351EC0E94B92ADC01CB01BC01CD01D4
:1045C00020E030E04EEE52E40E945B2ADC01CB0199
:1045D000BC01CD010E94E528DC01CB010F90CF91F9
:1045E000DF910895DF93CF93CDB7DEB79091A60406
:1045F00081E08927882F90E08093A6048091A7040A
:10460000882379F080915405882359F081E08093C4
:10461000A8041092A9041092AA0481E08093AB042C
:1046200060C08091A704882359F01092A80481E00B
:104630008093A9041092AA0481E08093AB0451C036
:1046400080915405882361F081E08093A80481E083
:104650008093A9041092AA0481E08093AB0441C026
:10466000809194049091950481309105C9F0823035
:1046700091051CF4009741F034C082309105E1F0BF
:104680008330910519F12DC01092A80481E0809328
:10469000A90481E08093AA0481E08093AB0421C047
:1046A00081E08093A8041092A90481E08093AA0479
:1046B00081E08093AB0415C01092A8041092A90465
:1046C0001092AA0481E08093AB040BC01092A8045E
:1046D0001092A90481E08093AA0481E08093AB0446
:1046E000000080911605882321F081E08093B004BA
:1046F00002C01092B00480911705882321F081E058
:104700008093B10402C01092B104809118058823EF
:1047100021F081E08093B20402C01092B204809133
:104720001905882321F081E08093B30402C0109220
:10473000B3048091A604882319F11092AC049091DF
:10474000CB0481E08927882321F081E08093AF04A6
:1047500002C01092AF048091CC04882321F081E044
:104760008093AE0402C01092AE048091CE048823E0
:1047700021F081E08093AD0434C01092AD0431C0CB
:1047800081E08093AC048091CD04882321F081E006
:104790008093AD0402C01092AD048091C8048823B8
:1047A00061F09091C90481E08927882331F081E08C
:1047B0008093AE041092AF0414C09091C80481E0BD
:1047C0008927882351F08091C904882331F0109201
:1047D000AE0481E08093AF0404C01092AE04109246
:1047E000AF04CF91DF910895DF93CF93CDB7DEB7BC
:1047F00083EE94E290935805809357058BE195E200
:1048000090935A058093590583E595E290935C0552
:1048100080935B058BE895E290935E0580935D0540
:10482000CF91DF910895DF93CF93CDB7DEB780911D
:10483000AD059091AE05FC018081882F90E08170DC
:104840009070009731F41092540581E080933E05FA
:1048500005C081E08093540510923E058091540577
:10486000882349F18091A704882329F181E080936E
:1048700064058091550590915605009771F48FE07D
:1048800090E090935605809355059091630581E0E3
:104890008927882F90E0809363058091630580933A
:1048A00028058091550590915605019790935605DE
:1048B0008093550585C09091540581E08927882310
:1048C00049F18091A704882329F181E08093640550
:1048D0008091550590915605009771F483E090E022
:1048E00090935605809355059091630581E0892743
:1048F000882F90E08093630580916305809328055D
:104900008091550590915605019790935605809397
:10491000550556C080915405882309F445C09091EF
:10492000A70481E08927882309F43EC081E08093B1
:1049300064058091550590915605009739F5809151
:104940005305882339F08FE090E0909356058093CB
:10495000550506C085E090E0909356058093550577
:104960009091630581E08927882F90E0809363050B
:104970009091630581E08927882341F09091530548
:1049800081E08927882F90E080935305809163050B
:104990008093280580915505909156050197909335
:1049A0005605809355050CC080916405882341F01D
:1049B0001092280510926405109256051092550524
:1049C000CF91DF910895DF93CF93CDB7DEB780917C
:1049D0006F059091700520916F0530917005F90178
:1049E00020812160FC0120838091A9059091AA0576
:1049F0002091A9053091AA05F90120812E7FFC01A3
:104A000020838091AB059091AC052091AB0530914E
:104A1000AC05F90120812160FC012083109254052E
:104A20001092630510925605109255051092530589
:104A3000CF91DF910895DF93CF93CDB7DEB780910B
:104A40008305909184052091830530918405F901B7
:104A500020812460FC0120838091A9059091AA0502
:104A60002091A9053091AA05F90120812E7FFC0132
:104A700020838091AB059091AC052091AB053091DE
:104A8000AC05F90120812160FC01208310925405BE
:104A90001092630510925605109255051092530519
:104AA000CF91DF910895DF93CF93CDB7DEB780919B
:104AB0009105909192052091910530919205F9010F
:104AC00020812064FC0120838091A9059091AA0592
:104AD0002091A9053091AA05F90120812E7FFC01C2
:104AE00020838091AB059091AC052091AB0530916E
:104AF000AC05F90120812160FC012083109254054E
:104B000010926305109256051092550510925305A8
:104B1000CF91DF910895DF93CF93CDB7DEB780912A
:104B2000A5059091A6052091A5053091A605F9014E
:104B300020812460FC0120838091A9059091AA0521
:104B40002091A9053091AA05F90120812E7FFC0151
:104B500020838091AB059091AC052091AB053091FD
:104B6000AC05F90120812160FC01208310925405DD
:104B70001092630510925605109255051092530538
:104B8000CF91DF910895DF93CF93CDB7DEB70E9429
:104B9000E0250E9465260E9438270E9477280E94FF
:104BA000BF090E94C6280E94420D0E942F0B0E943E
:104BB00065000E94B2140E94F423CF91DF91089502
:104BC000DF93CF93CDB7DEB78AE390E09093AA0549
:104BD0008093A9058BE390E09093AC058093AB059F
:104BE00089E390E09093AE058093AD0587E390E074
:104BF0009093B0058093AF0588E390E09093B20561
:104C00008093B10586E390E09093B4058093B3055B
:104C100084E390E09093B6058093B50585E390E03A
:104C20009093B8058093B70583E390E09093BA051D
:104C30008093B90581E390E09093BC058093BB0518
:104C400082E390E09093BE058093BD0580E390E001
:104C50009093C0058093BF0582E290E09093C205D7
:104C60008093C10583E290E09093C4058093C305CF
:104C700081E290E09093C6058093C50581E690E0BF
:104C80009093C8058093C70582E690E09093CA058B
:104C90008093C90580E290E09093CC058093CB058A
:104CA00084E690E09093CE058093CD0585E690E074
:104CB0009093D0058093CF0583E690E09093D20542
:104CC0008093D105CF91DF910895DF93CF93CDB736
:104CD000DEB783E590E0909366058093650583E5F4
:104CE00090E0909368058093670582E590E090934B
:104CF0006A058093690581E590E090936C05809347
:104D00006B0581E590E090936E0580936D0587E5D6
:104D100090E09093700580936F0586E590E0909306
:104D20007205809371058FE490E0909374058093F1
:104D300073058EE490E090937605809375058AE77D
:104D400090E090937805809377058CE490E09093C1
:104D50007A05809379058AE490E090937C058093AE
:104D60007B0588E490E090937E0580937D0588E73D
:104D700090E09093800580937F0586E490E0909387
:104D800082058093810587E590E090938405809368
:104D9000830586E590E0909386058093850585E4FC
:104DA00090E0909388058093870585E490E0909348
:104DB0008A058093890584E490E090938C05809324
:104DC0008B0583E490E090938E0580938D0583E4BA
:104DD00090E09093900580938F0587E590E0909305
:104DE00092058093910586E590E0909394058093D9
:104DF00093058BE890E090939605809395058AE85B
:104E000090E090939805809397058CE890E09093BC
:104E10009A058093990588E890E090939C0580938B
:104E20009B0586E890E090939E0580939D0584E81D
:104E300090E09093A00580939F0582E890E0909386
:104E4000A2058093A10580E890E09093A40580934B
:104E5000A30587E590E09093A6058093A5058CE7D0
:104E600090E09093A8058093A705CF91DF910895D6
:104E7000DF93CF93CDB7DEB780916505909166053E
:104E80002091650530916605F90120812064FC01BF
:104E9000208380916505909166052091650530918C
:104EA0006605F90120812860FC0120838091670557
:104EB000909168052091670530916805F90120817E
:104EC0002E7FFC01208380916705909168052091D9
:104ED000670530916805F90120812D7FFC01208351
:104EE000809167059091680520916705309168056C
:104EF000F90120812460FC01208380917305909149
:104F000074052091730530917405F90120812160A9
:104F1000FC012083809173059091740520917305A5
:104F200030917405F90120812D7FFC01208380914F
:104F30007505909176052091750530917605F901FA
:104F400020812860FC012083809175059091760571
:104F50002091750530917605F90120812F7EFC01A5
:104F6000208380917505909176052091750530918B
:104F70007605F90120812160FC012083809175056F
:104F8000909176052091750530917605F901208183
:104F90002260FC0120838091750590917605209117
:104FA000750530917605F90120812B7FFC01208366
:104FB000809187059091880520918705309188051B
:104FC000F90120812F7BFC0120838091870590913E
:104FD00088052091870530918805F9012081277F78
:104FE000FC0120838091890590918A052091890593
:104FF00030918A05F90120812160FC012083809194
:10500000890590918A052091890530918A05F901D9
:1050100020812260FC0120838091890590918A057E
:105020002091890530918A05F90120812B7FFC01AF
:10503000208380919505909196052091950530915A
:105040009605F90120812160FC012083809195055E
:10505000909196052091950530919605F901208152
:105060002D7FFC01208380919705909198052091D8
:10507000970530919805F90120812860FC01208373
:10508000809197059091980520919705309198050A
:10509000F90120812F7EFC0120838091970590915A
:1050A00098052091970530919805F90120812E7F70
:1050B000FC01208380919705909198052091970598
:1050C00030919805F90120812260FC0120838091B4
:1050D0009705909198052091970530919805F901D1
:1050E00020812B7FFC012083CF91DF910895DF93F6
:1050F000CF93CDB7DEB78BE290E09093D405809349
:10510000D3058AE290E09093D6058093D50585E992
:1051100090E09093D8058093D70580E990E0909334
:10512000DC058093DB0589E290E09093DE058093B7
:10513000DD058CE290E09093DA058093D9058BE948
:1051400090E09093E0058093DF058AE990E09093EA
:10515000E2058093E1058DE990E09093E40580936A
:10516000E30588E990E09093E8058093E70589E9F5
:1051700090E09093EA058093E9058CE990E09093A4
:10518000E6058093E505CF91DF910895DF93CF93F6
:10519000CDB7DEB78AE690E09093EC058093EB05FF
:1051A0008AE590E09093EE058093ED0589E590E027
:1051B0009093F0058093EF0588E590E09093F205D9
:1051C0008093F105CF91DF910895EF92FF920F93B5
:1051D0001F937B018C0120E030E040E05FE40E94FF
:1051E000B32B87FD11C0C801B70120E030E040E0DB
:1051F0005FE40E94882A0E94432C9B01AC0120504E
:1052000030404040504806C0C801B7010E94432CBE
:105210009B01AC01B901CA011F910F91FF90EF9062
:105220000895A0E0B0E0E7E1F9E20C94FB2EFC0168
:10523000EA018081823008F438C1DB019C91923010
:1052400008F430C1843059F4943009F02EC19181B2
:1052500011968C911197981709F021C126C19430AD
:1052600009F420C19230B1F4823009F01EC1CA01A4
:10527000AF0128E0DA010D90AD01DC010D92CD0106
:105280002150C1F7DB0111968C91119791818923EF
:1052900089830AC1823009F405C1C280D380DB0151
:1052A00012966D907C9013972481358146815781A9
:1052B0001496ED90FD900D911C911797C6018619DB
:1052C00097095C0197FF04C0AA24BB24A81AB90A55
:1052D000B0E2AB16B1040CF061C0181619066CF5FB
:1052E000370148010A2C04C09694879477946794F8
:1052F0000A94D2F781E090E0A0E0B0E00A2C04C06C
:10530000880F991FAA1FBB1F0A94D2F70197A10902
:10531000B1098E219F21A023B123EE24FF24870110
:10532000E3940097A105B10519F4EE24FF24870149
:10533000E628F728082919293CC00097D1F1CA0CA2
:10534000DB1C39014A010A2C04C096948794779497
:1053500067940A94D2F781E090E0A0E0B0E00A2CD4
:1053600004C0880F991FAA1FBB1F0A94D2F7019788
:10537000A109B10982239323A423B52321E030E0BE
:1053800040E050E00097A105B10519F420E030E0BD
:10539000A90126293729482959290BC06C147D04F5
:1053A00024F4EE24FF24870104C0630120E030E0F0
:1053B000A9018181FB019181891709F445C08823E6
:1053C00049F0D801C701821B930BA40BB50B9C01BC
:1053D000AD0104C02E193F09400B510B57FD04C00D
:1053E0001982DB82CA820BC081E08983DB82CA8298
:1053F00050954095309521953F4F4F4F5F4F2C83EF
:105400003D834E835F830DC0880F991FAA1FBB1F6A
:105410008C839D83AE83BF838A819B8101979B830D
:105420008A838C819D81AE81BF819C01AD01215019
:105430003040404050402F3FEFEF3E07EFEF4E0728
:10544000EFE35E0708F30BC08983DB82CA822E0D6F
:105450003F1D401F511F2C833D834E835F8383E09C
:1054600088832C813D814E815F8157FF1DC0DA0109
:10547000C90181709070A070B070569547953795AE
:105480002795822B932BA42BB52B8C839D83AE83E6
:10549000BF838A819B8101969B838A8305C0E9E64D
:1054A000F1E003C0FB0101C0FE01CF01CDB7DEB7C3
:1054B000EEE00C94172FA0E2B0E0E1E6FAE20C94E3
:1054C000032F69837A838B839C832D833E834F8351
:1054D000588789E0E82EF12CEC0EFD1ECE010196D6
:1054E000B7010E94352E8E010F5E1F4FCE0105962B
:1054F000B8010E94352EC701B801AE01475E5F4F6B
:105500000E9411290E94672DA096E6E00C941F2F9F
:10551000A0E2B0E0EEE8FAE20C94032F69837A830C
:105520008B839C832D833E834F8358878E01075F37
:105530001F4FCE010196B8010E94352E91E1E92E50
:10554000F12CEC0EFD1ECE010596B7010E94352E02
:105550008A8991E089278A8BC801B701AE01475E2D
:105560005F4F0E9411290E94672DA096E6E00C94DF
:105570001F2FA0E2B0E0EFEBFAE20C94F72E698364
:105580007A838B839C832D833E834F835887CE0100
:105590000196BE01675F7F4F0E94352ECE010596B2
:1055A000BE016F5E7F4F0E94352E9985923078F054
:1055B00089898230C0F0943019F4823041F4CBC034
:1055C000843019F4923079F4C6C0923051F481E0FD
:1055D0002A859A89291709F480E08A87CE010996DD
:1055E000BCC0823051F481E02A859A89291709F4D8
:1055F00080E08A8BCE014196B0C06D847E848F841A
:105600009888ED88FE880F89188DE0E2F0E080E050
:1056100090E0DC01AA24BB24650120E030E0A90170
:10562000B3016170707061157105D1F02E0D3F1DD1
:10563000401F511F15012601280E391E4A1E5B1EF0
:1056400081E090E0A0E0B0E02E153F054007510753
:1056500018F080E090E0DC01820D931DA41DB51DC3
:10566000AA0CBB1CCC1CDD1C17FF09C061E0262E58
:10567000312C412C512CA228B328C428D52831978D
:1056800049F0EE0CFF1C001F111F9694879477942D
:105690006794C6CF6B897C89EB85FC856E0F7F1F75
:1056A0006E5F7F4F7C8F6B8F61E0EA857A89E717A9
:1056B00009F460E06A8F6B8D7C8D10C0FC01E17095
:1056C000F070309729F05695479537952795506893
:1056D000B695A795979587956F5F7F4FB7FDEECFEE
:1056E0000CC0880F991FAA1FBB1F57FD8160220F96
:1056F000331F441F551F615070408030E0E09E070B
:10570000E0E0AE07E0E4BE0760F36B8F7C8F6FE7ED
:10571000E62EF12C012D112DE822F9220A231B235C
:1057200060E4E616F1040105110561F487FD0AC085
:10573000211531054105510529F0805C9F4FAF4F80
:10574000BF4F80788D8F9E8FAF8FB8A383E0898FF6
:10575000CE01499602C089E691E00E94672DA0968D
:10576000E2E10C94132FA8E1B0E0E9EBFBE20C942A
:10577000032F69837A838B839C832D833E834F839E
:1057800058878E01075F1F4FCE010196B8010E9416
:10579000352E81E1E82EF12CEC0EFD1ECE01059692
:1057A000B7010E94352E8985823040F08989823088
:1057B00028F0C801B7010E949E2E01C08FEF6896A5
:1057C000E6E00C941F2FA8E0B0E0E9EEFBE20C94B9
:1057D000032F7B018C0183E08983D801C7018827CF
:1057E000B7FD83959927AA27BB27282F8A83E11421
:1057F000F1040105110519F482E0898337C08EE1B7
:1058000090E09C838B83222389F080E0E81680E07F
:10581000F80680E0080780E8180769F11095009500
:10582000F094E094E11CF11C011D111DED82FE823B
:105830000F831887C801B7010E940D2D9C012150CC
:1058400030401216130694F4022E04C0EE0CFF1C16
:10585000001F111F0A94D2F7ED82FE820F83188772
:105860008EE190E0821B930B9C838B83CE0101968B
:105870000E94672D04C060E070E080E09FEC2896F5
:10588000E6E00C941F2FACE0B0E0E9E4FCE20C94FD
:10589000072F69837A838B839C83CE010196BE0197
:1058A0006B5F7F4F0E94352E8D81823081F1823077
:1058B00070F1843021F48E81882369F10AC02F8130
:1058C000388537FD24C06E812F3131053CF06623C9
:1058D00011F120E030E040E050E821C08EE190E09E
:1058E000821B930B29853A854B855C8504C05695B0
:1058F0004795379527958A95D2F7662381F050957D
:105900004095309521953F4F4F4F5F4F08C020E0A5
:1059100030E0A90104C02FEF3FEF4FEF5FE7B9017F
:10592000CA012C96E2E00C94232FA8E0B0E0EBE94A
:10593000FCE20C94012F7B018C011A826115710528
:105940008105910519F482E089835FC083E0898332
:105950008EE1C82ED12CDC82CB82ED82FE820F83B9
:105960001887C801B7010E940D2DFC013197F7FF80
:105970003AC0AA27BB27AE1BBF0B21E030E040E0B6
:1059800050E00A2E04C0220F331F441F551F0A94F3
:10599000D2F721503040404050402E213F2140233B
:1059A000512361E070E080E090E021153105410570
:1059B000510519F460E070E0CB0104C0169507951D
:1059C000F794E794AA95D2F7E62AF72A082B192B21
:1059D000ED82FE820F8318878EE190E08E1B9F0B75
:1059E0009C838B8312C0309781F00E2E04C0EE0C86
:1059F000FF1C001F111F0A94D2F7ED82FE820F8355
:105A00001887CE1ADF0ADC82CB82CE0101960E9473
:105A1000672D2896E8E00C941D2FAF92BF92CF928D
:105A2000DF92EF92FF920F931F937B018C0180E036
:105A3000E81680E0F80681E0080780E0180758F4CF
:105A4000EFEFEE16F1040105110509F090F480E086
:105A500090E0DC0117C0F0E0EF16F0E0FF06F0E0A8
:105A60000F07F1E01F0750F480E190E0A0E0B0E004
:105A700009C088E090E0A0E0B0E004C088E190E0D8
:105A8000A0E0B0E020E230E040E050E0281B390B1D
:105A90004A0B5B0B5701680104C0D694C794B794B6
:105AA000A7948A95D2F7D601C5018F589E4FFC0165
:105AB0008081281B310941095109C9011F910F91AA
:105AC000FF90EF90DF90CF90BF90AF900895EF924E
:105AD000FF920F931F93CF93DF93FC0124813581B5
