:100000000C9446000C94A4010C94B4010C9463006D
:100010000C9463000C9463000C9463000C946300D4
:100020000C9463000C9463000C9463000C946300C4
:100030000C9463000C9463000C9463000C946300B4
:100040000C9463000C9463000C9463000C946300A4
:100050000C9463000C9463000C9463000C94630094
:100060000C9463000C9463000C9463000C94630084
:100070000C9463000C9432060C9466050C94630097
:100080000C9463000C9463000C94630011241FBE55
:10009000CFEFD0E1DEBFCDBF11E0A0E0B1E0EAE7F5
:1000A000FFE002C005900D92A635B107D9F711E027
:1000B000A6E5B1E001C01D92AA37B107E1F70E94A1
:1000C000B8020C94BB070C940000DF93CF93CDB71C
:1000D000DEB781E690E021E630E0F90120812F775C
:1000E000FC01208382E690E022E630E0F9012081E5
:1000F0002068FC01208381E690E021E630E0F901F0
:1001000020812F7BFC01208382E690E022E630E014
:10011000F90120812064FC01208381E690E021E642
:1001200030E0F9012081277FFC01208382E690E006
:1001300022E630E0F90120812860FC01208381E67D
:1001400090E021E630E0F90120812B7FFC01208343
:1001500082E690E022E630E0F90120812460FC0193
:10016000208381E690E021E630E0F90120812D7FB7
:10017000FC01208382E690E022E630E0F901208154
:100180002260FC01208381E690E021E630E0F90165
:1001900020812E7FFC01208382E690E022E630E081
:1001A000F90120812160FC012083CF91DF91089526
:1001B000DF93CF930F92CDB7DEB7198280E290E044
:1001C000FC018081882F90E088709070009719F46E
:1001D00089818160898380E290E0FC018081882FA1
:1001E00090E084709070009719F48981826089830F
:1001F00080E290E0FC018081882F90E08270907016
:10020000009719F489818460898380E290E0FC0181
:100210008081882F90E081709070009719F4898117
:100220008860898389810F90CF91DF910895DF9352
:10023000CF930F92CDB7DEB789838981882F90E065
:10024000009721F08130910579F018C080E290E0AC
:10025000FC018081882F90E080749070009711F4E9
:1002600081E00DC080E00BC080E290E0FC01808165
:10027000882314F081E003C080E001C080E00F908B
:10028000CF91DF910895DF93CF93CDB7DEB781E3B0
:1002900090E021E330E0F90120812E7FFC012083F2
:1002A00082E390E022E330E0F90120812160FC014B
:1002B000208389E590E029E530E0F9012081216083
:1002C000FC0120838AE690E02AE630E0F9012081F3
:1002D0002260FC0120838AE690E02AE630E0F90102
:1002E00020812E7FFC01208381E390E021E330E038
:1002F000F90120812D7FFC01208382E390E022E33D
:1003000030E0F90120812260FC01208389E590E042
:1003100029E530E0F90120812260FC0120838AE692
:1003200090E02AE630E0F90120812860FC0120837A
:100330008AE690E02AE630E0F90120812B7FFC017B
:100340002083CF91DF9108951F920F920FB60F92E5
:100350001124DF93CF93CDB7DEB7CF91DF910F900C
:100360000FBE0F901F9018951F920F920FB60F920D
:100370001124DF93CF93CDB7DEB7CF91DF910F90EC
:100380000FBE0F901F901895DF93CF930F92CDB7AC
:10039000DEB719825CC08981282F30E0C901880F3F
:1003A000991F880F991F820F931F80509F4FFC0148
:1003B00020813181F9018081682F8981482F50E0A7
:1003C000CA01880F991F880F991F840F951F8C5F92
:1003D0009E4FFC018081482F50E081E090E002C0F8
:1003E000880F991F4A95E2F7862BF901808389814E
:1003F000282F30E0C901880F991F880F991F820F9D
:10040000931F8E5F9E4FFC0120813181F901808115
:10041000682F8981482F50E0CA01880F991F880FE3
:10042000991F840F951F8C5F9E4FFC018081482F80
:1004300050E081E090E0042E02C0880F991F0A94DA
:10044000E2F7862BF901808389818F5F8983898117
:10045000843008F4A0CF0F90CF91DF910895DF93FF
:10046000CF9300D0CDB7DEB789836A838A81882392
:10047000F1F18981282F30E0C901880F991F880F79
:10048000991F820F931F8E5F9E4FFC014081518107
:100490008981282F30E0C901880F991F880F991F83
:1004A000820F931F8E5F9E4FFC0180819181FC0122
:1004B0008081682F8981282F30E0C901880F991F1A
:1004C000880F991F820F931F8C5F9E4FFC018081C4
:1004D000282F30E081E090E0022E02C0880F991FA3
:1004E0000A94E2F780958623FA0180833CC08981D3
:1004F000282F30E0C901880F991F880F991F820F9C
:10050000931F8E5F9E4FFC01408151818981282F6E
:1005100030E0C901880F991F880F991F820F931F20
:100520008E5F9E4FFC0180819181FC018081682F4C
:100530008981282F30E0C901880F991F880F991FE2
:10054000820F931F8C5F9E4FFC018081282F30E02B
:1005500081E090E0022E02C0880F991F0A94E2F712
:10056000862BFA0180830F900F90CF91DF91089531
:10057000DF93CF93CDB7DEB7F8940E94C4010E94F9
:1005800065000E9443010E9455040E94CF068CE042
:100590000E948B0678940E942A05FCCFDF93CF93AC
:1005A0000F92CDB7DEB719820AC08981882F90E0FB
:1005B000895A9E4FFC01108289818F5F89838981CE
:1005C000843098F30F90CF91DF910895DF93CF930C
:1005D00000D00F92CDB7DEB789836A834B838A81BF
:1005E000882F90E081709070882309F44CC0898135
:1005F000282F30E0C901880F991F820F931F9C019B
:10060000220F331F220F331F820F931F8A5E9E4FCC
:10061000FC01408151818981282F30E0C901880F78
:10062000991F820F931F9C01220F331F220F331F2C
:10063000820F931F8A5E9E4FFC0180819181FC0195
:100640008081682F8981282F30E0C901880F991F88
:10065000820F931F9C01220F331F220F331F820F23
:10066000931F885E9E4FFC018081282F30E081E03F
:1006700090E0022E02C0880F991F0A94E2F7862BA1
:10068000FA0180834CC08981282F30E0C901880F8E
:10069000991F820F931F9C01220F331F220F331FBC
:1006A000820F931F8A5E9E4FFC0140815181898198
:1006B000282F30E0C901880F991F820F931F9C01DA
:1006C000220F331F220F331F820F931F8A5E9E4F0C
:1006D000FC0180819181FC018081682F8981282F14
:1006E00030E0C901880F991F820F931F9C01220FD0
:1006F000331F220F331F820F931F885E9E4FFC0112
:100700008081282F30E081E090E0022E02C0880F27
:10071000991F0A94E2F780958623FA0180838A81E3
:10072000882F90E082709070009709F44CC0898106
:10073000282F30E0C901880F991F820F931F9C0159
:10074000220F331F220F331F820F931F855E9E4F90
:10075000FC01408151818981282F30E0C901880F37
:10076000991F820F931F9C01220F331F220F331FEB
:10077000820F931F855E9E4FFC0180819181FC0159
:100780008081682F8981282F30E0C901880F991F47
:10079000820F931F9C01220F331F220F331F820FE2
:1007A000931F835E9E4FFC018081282F30E081E003
:1007B00090E0022E02C0880F991F0A94E2F7862B60
:1007C000FA0180834BC08981282F30E0C901880F4E
:1007D000991F820F931F9C01220F331F220F331F7B
:1007E000820F931F855E9E4FFC014081518189815C
:1007F000282F30E0C901880F991F820F931F9C0199
:10080000220F331F220F331F820F931F855E9E4FCF
:10081000FC0180819181FC018081682F8981282FD2
:1008200030E0C901880F991F820F931F9C01220F8E
:10083000331F220F331F820F931F835E9E4FFC01D5
:100840008081282F30E081E090E002C0880F991F5E
:100850002A95E2F780958623FA0180838981282FE3
:1008600030E0C901880F991F820F931F9C01220F4E
:10087000331F220F331F820F931F8F5D9E4FFC018A
:10088000808191812B81FC0120830F900F900F902C
:10089000CF91DF910895DF93CF93CDB7DEB70E945C
:1008A000D8008062CF91DF910895DF93CF930F92AC
:1008B000CDB7DEB710925C0110925B0110925D0122
:1008C0001982ADC08981282F30E0C901880F991F96
:1008D000820F931F9C01220F331F220F331F820FA1
:1008E000931F8C5E9E4FFC0120813181F901808134
:1008F000682F8981482F50E0CA01880F991F840F03
:10090000951FAC01440F551F440F551F840F951FB1
:10091000885E9E4FFC018081482F50E081E090E08E
:1009200002C0880F991F4A95E2F7862BF901808350
:100930008981282F30E0C901880F991F820F931FEA
:100940009C01220F331F220F331F820F931F875EDC
:100950009E4FFC0120813181F9018081682F8981BE
:10096000482F50E0CA01880F991F840F951FAC01D2
:10097000440F551F440F551F840F951F835E9E4FD4
:10098000FC018081482F50E081E090E002C0880F98
:10099000991F4A95E2F7862BF90180838981282FD8
:1009A00030E0C901880F991F820F931F9C01220F0D
:1009B000331F220F331F820F931F825E9E4FFC0155
:1009C00020813181F9018081682F8981482F50E091
:1009D000CA01880F991F840F951FAC01440F551F42
:1009E000440F551F840F951F805E9E4FFC01808130
:1009F000482F50E081E090E0042E02C0880F991F3C
:100A00000A94E2F7862BF90180838981882F90E090
:100A1000895A9E4FFC01108289818F5F8983898169
:100A2000843008F44FCF0E944B048093560183E535
:100A300090E02CE6FC0120838FE490E029EAFC01A1
:100A400020838EE490E02BE0FC0120830F90CF9177
:100A5000DF910895DF93CF930F92CDB7DEB7F8946F
:100A600080E00E941701882329F481E00E94170189
:100A7000882329F0809157018FEF809357010E94BE
:100A8000FB06882311F00E94CE02198217C039811B
:100A90008981882F90E0895A9E4FFC0120818981AD
:100AA000882F90E0895A9E4FFC019081832F622FFE
:100AB000492F0E94E60289818F5F89838981843072
:100AC00030F378940F90CF91DF9108951F920F9299
:100AD0000FB60F9211242F933F934F935F936F9311
:100AE0007F938F939F93AF93BF93EF93FF93DF9386
:100AF000CF93CDB7DEB78CE990E0FC018081809385
:100B00005B0180915C01813029F580915E01882331
:100B100089F09091560180915B01981731F482E041
:100B200080935C0110925D0102C010925C011092F2
:100B30005E0157C080915B01803409F052C09091F2
:100B40005E0181E08927882309F44BC081E080930E
:100B50005E0147C080915C01823009F042C0809103
:100B60005D01882F90E020915B01815A9E4FFC012E
:100B7000208380915D01823098F480915D01882FFF
:100B800090E0805B9E4FFC01908180915B01981703
:100B900019F110925C0180E060E00E942F021CC0FD
:100BA00080915D018630C0F0809162018093570191
:100BB0008091630180935801809164018093590171
:100BC0008091650180935A0110925C011092790125
:100BD00080E061E00E942F0280915D018F5F809331
:100BE0005D0180917701882371F080915B018432EF
:100BF00089F41092770181E080935C0110925D018D
:100C00001092540107C080915B01853219F481E094
:100C10008093770180917801882351F080915B0166
:100C20008A3069F41092780181E08093540107C002
:100C300080915B018D3019F481E080937801CF9130
:100C4000DF91FF91EF91BF91AF919F918F917F9134
:100C50006F915F914F913F912F910F900FBE0F9029
:100C60001F9018951F920F920FB60F9211242F9379
:100C70003F934F935F936F937F938F939F93AF9324
:100C8000BF93EF93FF93DF93CF93CDB7DEB7809100
:100C900079018F5F80937901809179018B3040F0E9
:100CA000109279010E94CE0280E060E00E942F0243
:100CB000CF91DF91FF91EF91BF91AF919F918F9174
:100CC0007F916F915F914F913F912F910F900FBE48
:100CD0000F901F901895DF93CF930F92CDB7DEB78B
:100CE00089838981882351F082E390E022E330E018
:100CF000F90120812061FC01208309C082E390E09A
:100D000022E330E0F90120812F7EFC0120830F9047
:100D1000CF91DF910895DF93CF930F92CDB7DEB7D8
:100D2000898388E969810E94170781E390E021E3C4
:100D300030E0F90120812061FC01208380E00E94E5
:100D40006B060F90CF91DF910895DF93CF930F92B1
:100D5000CDB7DEB78983F89481E00E946B06898164
:100D60000E94630780E00E946B0678940F90CF91F9
:100D7000DF910895DF93CF9300D0CDB7DEB79A838C
:100D80008983F89480E00E946B0689819A810E9491
:100D9000970778940F900F90CF91DF910895DF938C
:100DA000CF93CDB7DEB78AE390E02AE330E0F901D4
:100DB00020812E7FFC0120838BE390E02BE330E049
:100DC000F90120812160FC0120838BE890E0FC0187
:100DD00010828AE890E022E0FC0120838DE790E019
:100DE00024E0FC01208388E890E0FC01118210825D
:100DF000CF91DF910895DF93CF93CDB7DEB789E32D
:100E000090E0FC018081882F90E0817090700097C5
:100E100031F481E061E00E942F0280E005C081E0B2
:100E200060E00E942F0281E0CF91DF910895DF936F
:100E3000CF9300D000D0CDB7DEB78B836C838BE926
:100E400090E02BE930E0F90120812260FC01208351
:100E50008AE990E0FC0110828DE990E026E0FC0137
:100E600020831A82198205C089819A8101969A830A
:100E7000898389819A81F3E188389F07A8F38BE9F8
:100E800090E02BE930E0F9012081237EFC012083F2
:100E90008AE990E02B81FC01208388E990E02C8195
:100EA000222F30E0232F330F330BFC01208389E9FD
:100EB00090E02C81FC0120830F900F900F900F90F9
:100EC000CF91DF910895DF93CF9300D00F92CDB7EC
:100ED000DEB78B8300008BE990E0FC018081882FD6
:100EE00090E0807290700097B1F38CE990E02B81D4
:100EF000FC0120838BE990E02BE930E0F9012081AF
:100F00002F7DFC0120831A82198205C089819A8174
:100F100001969A83898389819A81F3E188389F07B2
:100F2000A8F30F900F900F90CF91DF910895DF936A
:100F3000CF9300D0CDB7DEB79A83898300008BE9C9
:100F400090E0FC0180818823D4F78CE990E0FC01DB
:100F5000208189819A81FC0120838BE990E02BE933
:100F600030E0F90120812F77FC0120830F900F9052
:0A0F7000CF91DF910895F894FFCFB0
:100F7A003A003B00073A003B00063A003B00053ABC
:100F8A00003B0004370038000237003800033700FE
:100F9A00045100640065000364006500043700051D
:100FAA004A00340035000034003500013700064895
:100FBA00003400350002340035000337000778009A
:060FCA0044523D0001004D
:00000001FF
