:100000000C9446000C9463000C9463000C94630001
:100010000C9463000C9463000C9463000C946300D4
:100020000C9463000C9463000C9463000C946300C4
:100030000C9463000C9463000C9463000C946300B4
:100040000C9463000C9463000C9463000C946300A4
:100050000C9463000C9463000C9463000C94630094
:100060000C9463000C9463000C9463000C94630084
:100070000C9463000C9461030C9495020C9463003F
:100080000C9463000C9463000C94630011241FBE55
:10009000CFEFD0E1DEBFCDBF11E0A0E0B1E0EAE8F4
:1000A000FAE002C005900D92A037B107D9F711E030
:1000B000A0E7B1E001C01D92A638B107E1F70E94A8
:1000C00059010C9443050C940000DF93CF930F92D9
:1000D000CDB7DEB719825CC08981282F30E0C90115
:1000E000880F991F880F991F820F931F80509F4F71
:1000F000FC0120813181F9018081682F8981482F9D
:1001000050E0CA01880F991F880F991F840F951F0F
:100110008C5F9E4FFC018081482F50E081E090E091
:1001200002C0880F991F4A95E2F7862BF901808358
:100130008981282F30E0C901880F991F880F991FE6
:10014000820F931F8E5F9E4FFC0120813181F90148
:100150008081682F8981482F50E0CA01880F991F3C
:10016000880F991F840F951F8C5F9E4FFC01808123
:10017000482F50E081E090E0042E02C0880F991FC4
:100180000A94E2F7862BF901808389818F5F898346
:100190008981843008F4A0CF0F90CF91DF9108952A
:1001A000DF93CF9300D0CDB7DEB789836A838A818E
:1001B0008823F1F18981282F30E0C901880F991F28
:1001C000880F991F820F931F8E5F9E4FFC01408105
:1001D00051818981282F30E0C901880F991F880F2C
:1001E000991F820F931F8E5F9E4FFC01808191812A
:1001F000FC018081682F8981282F30E0C901880F98
:10020000991F880F991F820F931F8C5F9E4FFC01CF
:100210008081282F30E081E090E0022E02C0880F1C
:10022000991F0A94E2F780958623FA0180833CC0E7
:100230008981282F30E0C901880F991F880F991FE5
:10024000820F931F8E5F9E4FFC01408151818981F7
:10025000282F30E0C901880F991F880F991F820F3E
:10026000931F8E5F9E4FFC0180819181FC018081F4
:10027000682F8981282F30E0C901880F991F880FC6
:10028000991F820F931F8C5F9E4FFC018081282F46
:1002900030E081E090E0022E02C0880F991F0A949E
:1002A000E2F7862BFA0180830F900F90CF91DF91B8
:1002B0000895DF93CF93CDB7DEB7F8940E9418046A
:1002C0000E9465000E946D010E94FE038CE00E9466
:1002D0009A0378940E94E901FDCFDF93CF930F92A8
:1002E000CDB7DEB7109276011092750110927701AA
:1002F000198263C08981282F30E0C901880F991FB6
:10030000880F991F820F931F8C5E9E4FFC012081E6
:100310003181F9018081682F8981482F50E0CA011D
:10032000880F991F880F991F840F951F885E9E4F15
:10033000FC018081482F50E081E090E002C0880FEE
:10034000991F4A95E2F7862BF90180838981282F2E
:1003500030E0C901880F991F880F991F820F931FE2
:100360008A5E9E4FFC0120813181F9018081682FD6
:100370008981482F50E0CA01880F991F880F991F63
:10038000840F951F885E9E4FFC018081482F50E0AE
:1003900081E090E0042E02C0880F991F0A94E2F7D2
:1003A000862BF90180838981882F90E08F589E4F9A
:1003B000FC01108289818F5F89838981803108F4F3
:1003C00099CF0E947302809370010F90CF91DF91BB
:1003D0000895DF93CF930F92CDB7DEB7F8941982CB
:1003E00079C0898186958695882F90E08F589E4F99
:1003F000FC018081882F90E02981222F30E023703A
:100400003070022E02C0959587950A94E2F78170AC
:100410009070882379F18981282F30E0C901880FF5
:10042000991F880F991F820F931F8A5E9E4FFC01B0
:1004300020813181F9018081682F8981482F50E026
:10044000CA01880F991F880F991F840F951F885E16
:100450009E4FFC018081482F50E081E090E0042E07
:1004600002C0880F991F0A94E2F780958623F9014C
:1004700080832DC08981282F30E0C901880F991F02
:10048000880F991F820F931F8A5E9E4FFC01208167
:100490003181F9018081682F8981482F50E0CA019C
:1004A000880F991F880F991F840F951F885E9E4F94
:1004B000FC018081482F50E081E090E0042E02C0D2
:1004C000880F991F0A94E2F7862BF90180838981AE
:1004D0008F5F89838981803108F483CF78940F906E
:1004E000CF91DF910895DF93CF93CDB7DEB70E9410
:1004F00067048064CF91DF910895DF93CF930F92CB
:10050000CDB7DEB719820AC08981882F90E08F5855
:100510009E4FFC01108289818F5F898389818031A0
:1005200098F30F90CF91DF9108951F920F920FB61D
:100530000F9211242F933F934F935F936F937F9369
:100540008F939F93AF93BF93EF93FF93DF93CF93DB
:10055000CDB7DEB78CE990E0FC0180818093750116
:1005600080917601813029F580917801882389F086
:100570009091700180917501981731F482E0809319
:1005800076011092770102C01092760110927801E4
:1005900057C080917501803409F052C09091780164
:1005A00081E08927882309F44BC081E0809378019A
:1005B00047C080917601823009F042C08091770176
:1005C000882F90E02091750187589E4FFC01208371
:1005D00080917701823098F480917701882F90E0A4
:1005E0008C599E4FFC01908180917501981719F1EB
:1005F0001092760180E060E00E94D0001CC08091E3
:1006000077018630C0F080917C01809371018091E8
:100610007D018093720180917E01809373018091AE
:100620007F0180937401109276011092850180E021
:1006300061E00E94D000809177018F5F8093770105
:1006400080918301882371F080917501843289F44F
:100650001092830181E080937601109277011092CD
:100660006E0107C080917501853219F481E0809395
:10067000830180918401882351F0809175018A3033
:1006800069F41092840181E080936E0107C080912B
:1006900075018D3019F481E080938401CF91DF9151
:1006A000FF91EF91BF91AF919F918F917F916F914A
:1006B0005F914F913F912F910F900FBE0F901F9020
:1006C00018951F920F920FB60F9211242F933F93FC
:1006D0004F935F936F937F938F939F93AF93BF934A
:1006E000EF93FF93DF93CF93CDB7DEB78091850172
:1006F0008F5F80938501809185018B3040F010924F
:1007000085010E947D0280E060E00E94D000CF91D0
:10071000DF91FF91EF91BF91AF919F918F917F9169
:100720006F915F914F913F912F910F900FBE0F905E
:100730001F901895DF93CF930F92CDB7DEB78983C3
:1007400088E969810E94A20481E390E021E330E01E
:10075000F90120812061FC01208380E00E94DE03FA
:100760000F90CF91DF910895DF93CF930F92CDB784
:10077000DEB78983F89481E00E94DE0389810E94BC
:10078000EE0480E00E94DE0378940F90CF91DF9119
:100790000895DF93CF9300D0CDB7DEB79A838983D6
:1007A000F89480E00E94DE0389819A810E942205EC
:1007B00078940F900F90CF91DF910895DF93CF93AE
:1007C0000F92CDB7DEB789838981882351F082E308
:1007D00090E022E330E0F90120812061FC012083D8
:1007E00009C082E390E022E330E0F90120812F7E0E
:1007F000FC0120830F90CF91DF910895DF93CF9379
:10080000CDB7DEB78BE890E0FC0110828AE890E07B
:1008100022E0FC0120838DE790E024E0FC012083AE
:1008200088E890E0FC0111821082CF91DF91089559
:10083000DF93CF93CDB7DEB787E390E027E330E0D7
:10084000F90120812F7EFC01208388E390E028E3DA
:1008500030E0F90120812061FC01208387E390E0F2
:1008600027E330E0F90120812F7DFC01208388E31C
:1008700090E028E330E0F90120812062FC01208330
:1008800087E390E027E330E0F90120812F7BFC0132
:10089000208388E390E028E330E0F90120812064A0
:1008A000FC01208387E390E027E330E0F901208119
:1008B0002F77FC01208388E390E028E330E0F90102
:1008C00020812068FC012083CF91DF910895DF9380
:1008D000CF930F92CDB7DEB7198286E390E0FC018B
:1008E0008081882F90E080719070009719F4898141
:1008F0008160898386E390E0FC018081882F90E00D
:1009000080729070009719F489818260898386E3F0
:1009100090E0FC018081882F90E0807490700097B7
:1009200019F489818460898386E390E0FC018081E9
:1009300088231CF089818860898389810F90CF91F9
:10094000DF910895DF93CF9300D000D0CDB7DEB70D
:100950008B836C838BE990E02BE930E0F9012081F7
:100960002260FC0120838AE990E0FC0110828DE97D
:1009700090E026E0FC0120831A82198205C089815B
:100980009A8101969A83898389819A81F3E18838D3
:100990009F07A8F38BE990E02BE930E0F901208173
:1009A000237EFC0120838AE990E02B81FC012083D7
:1009B00088E990E02C81222F30E0232F330F330B76
:1009C000FC01208389E990E02C81FC0120830F90B9
:1009D0000F900F900F90CF91DF910895DF93CF93F9
:1009E00000D00F92CDB7DEB78B8300008BE990E08B
:1009F000FC018081882F90E0807290700097B1F3A5
:100A00008CE990E02B81FC0120838BE990E02BE9BD
:100A100030E0F90120812F7DFC0120831A821982A8
:100A200005C089819A8101969A83898389819A81F7
:100A3000F3E188389F07A8F30F900F900F90CF91A4
:100A4000DF910895DF93CF9300D0CDB7DEB79A83BF
:100A5000898300008BE990E0FC0180818823D4F732
:100A600089819A8125E0FC0120838BE990E02BE9C4
:100A700030E0F90120812F77FC0120830F900F9047
:0A0A8000CF91DF910895F894FFCFA5
:100A8A003A003B00073A003B00063A003B00053AB1
:100A9A00003B000434003500003400350001340006
:100AAA0035000234003500033400350004340035C3
:100ABA000005340035000634003500076100620085
:100ACA0000610062000161006200026100620003CD
:100ADA006100620004610062000561006200066153
:100AEA000062000744523D002524000D0A0001005F
:00000001FF
